"use strict";(self.webpackChunkmy_website=self.webpackChunkmy_website||[]).push([[8146],{3905:function(e,a,n){n.d(a,{Zo:function(){return s},kt:function(){return b}});var c=n(7294);function t(e,a,n){return a in e?Object.defineProperty(e,a,{value:n,enumerable:!0,configurable:!0,writable:!0}):e[a]=n,e}function d(e,a){var n=Object.keys(e);if(Object.getOwnPropertySymbols){var c=Object.getOwnPropertySymbols(e);a&&(c=c.filter((function(a){return Object.getOwnPropertyDescriptor(e,a).enumerable}))),n.push.apply(n,c)}return n}function r(e){for(var a=1;a<arguments.length;a++){var n=null!=arguments[a]?arguments[a]:{};a%2?d(Object(n),!0).forEach((function(a){t(e,a,n[a])})):Object.getOwnPropertyDescriptors?Object.defineProperties(e,Object.getOwnPropertyDescriptors(n)):d(Object(n)).forEach((function(a){Object.defineProperty(e,a,Object.getOwnPropertyDescriptor(n,a))}))}return e}function f(e,a){if(null==e)return{};var n,c,t=function(e,a){if(null==e)return{};var n,c,t={},d=Object.keys(e);for(c=0;c<d.length;c++)n=d[c],a.indexOf(n)>=0||(t[n]=e[n]);return t}(e,a);if(Object.getOwnPropertySymbols){var d=Object.getOwnPropertySymbols(e);for(c=0;c<d.length;c++)n=d[c],a.indexOf(n)>=0||Object.prototype.propertyIsEnumerable.call(e,n)&&(t[n]=e[n])}return t}var i=c.createContext({}),o=function(e){var a=c.useContext(i),n=a;return e&&(n="function"==typeof e?e(a):r(r({},a),e)),n},s=function(e){var a=o(e.components);return c.createElement(i.Provider,{value:a},e.children)},l={inlineCode:"code",wrapper:function(e){var a=e.children;return c.createElement(c.Fragment,{},a)}},u=c.forwardRef((function(e,a){var n=e.components,t=e.mdxType,d=e.originalType,i=e.parentName,s=f(e,["components","mdxType","originalType","parentName"]),u=o(n),b=t,p=u["".concat(i,".").concat(b)]||u[b]||l[b]||d;return n?c.createElement(p,r(r({ref:a},s),{},{components:n})):c.createElement(p,r({ref:a},s))}));function b(e,a){var n=arguments,t=a&&a.mdxType;if("string"==typeof e||t){var d=n.length,r=new Array(d);r[0]=u;var f={};for(var i in a)hasOwnProperty.call(a,i)&&(f[i]=a[i]);f.originalType=e,f.mdxType="string"==typeof e?e:t,r[1]=f;for(var o=2;o<d;o++)r[o]=n[o];return c.createElement.apply(null,r)}return c.createElement.apply(null,n)}u.displayName="MDXCreateElement"},8215:function(e,a,n){n.d(a,{Z:function(){return t}});var c=n(7294);function t(e){var a=e.children,n=e.hidden,t=e.className;return c.createElement("div",{role:"tabpanel",hidden:n,className:t},a)}},9877:function(e,a,n){n.d(a,{Z:function(){return s}});var c=n(3117),t=n(7294),d=n(2389),r=n(9575),f=n(6010),i="tabItem_LplD";function o(e){var a,n,d,o=e.lazy,s=e.block,l=e.defaultValue,u=e.values,b=e.groupId,p=e.className,m=t.Children.map(e.children,(function(e){if((0,t.isValidElement)(e)&&void 0!==e.props.value)return e;throw new Error("Docusaurus error: Bad <Tabs> child <"+("string"==typeof e.type?e.type:e.type.name)+'>: all children of the <Tabs> component should be <TabItem>, and every <TabItem> should have a unique "value" prop.')})),w=null!=u?u:m.map((function(e){var a=e.props;return{value:a.value,label:a.label,attributes:a.attributes}})),h=(0,r.lx)(w,(function(e,a){return e.value===a.value}));if(h.length>0)throw new Error('Docusaurus error: Duplicate values "'+h.map((function(e){return e.value})).join(", ")+'" found in <Tabs>. Every value needs to be unique.');var v=null===l?l:null!=(a=null!=l?l:null==(n=m.find((function(e){return e.props.default})))?void 0:n.props.value)?a:null==(d=m[0])?void 0:d.props.value;if(null!==v&&!w.some((function(e){return e.value===v})))throw new Error('Docusaurus error: The <Tabs> has a defaultValue "'+v+'" but none of its children has the corresponding value. Available values are: '+w.map((function(e){return e.value})).join(", ")+". If you intend to show no default tab, use defaultValue={null} instead.");var k=(0,r.UB)(),T=k.tabGroupChoices,g=k.setTabGroupChoices,O=(0,t.useState)(v),N=O[0],S=O[1],y=[],P=(0,r.o5)().blockElementScrollPositionUntilNextRender;if(null!=b){var x=T[b];null!=x&&x!==N&&w.some((function(e){return e.value===x}))&&S(x)}var _=function(e){var a=e.currentTarget,n=y.indexOf(a),c=w[n].value;c!==N&&(P(a),S(c),null!=b&&g(b,c))},R=function(e){var a,n=null;switch(e.key){case"ArrowRight":var c=y.indexOf(e.currentTarget)+1;n=y[c]||y[0];break;case"ArrowLeft":var t=y.indexOf(e.currentTarget)-1;n=y[t]||y[y.length-1]}null==(a=n)||a.focus()};return t.createElement("div",{className:"tabs-container"},t.createElement("ul",{role:"tablist","aria-orientation":"horizontal",className:(0,f.Z)("tabs",{"tabs--block":s},p)},w.map((function(e){var a=e.value,n=e.label,d=e.attributes;return t.createElement("li",(0,c.Z)({role:"tab",tabIndex:N===a?0:-1,"aria-selected":N===a,key:a,ref:function(e){return y.push(e)},onKeyDown:R,onFocus:_,onClick:_},d,{className:(0,f.Z)("tabs__item",i,null==d?void 0:d.className,{"tabs__item--active":N===a})}),null!=n?n:a)}))),o?(0,t.cloneElement)(m.filter((function(e){return e.props.value===N}))[0],{className:"margin-vert--md"}):t.createElement("div",{className:"margin-vert--md"},m.map((function(e,a){return(0,t.cloneElement)(e,{key:a,hidden:e.props.value!==N})}))))}function s(e){var a=(0,d.Z)();return t.createElement(o,(0,c.Z)({key:String(a)},e))}},4342:function(e,a,n){n.r(a),n.d(a,{assets:function(){return u},contentTitle:function(){return s},default:function(){return m},frontMatter:function(){return o},metadata:function(){return l},toc:function(){return b}});var c=n(3117),t=n(102),d=(n(7294),n(3905)),r=n(9877),f=n(8215),i=["components"],o={sidebar_position:9,id:"raw-transaction-api",title:"\ud83c\udfafRaw Transaction API"},s=void 0,l={unversionedId:"cash-netcore/raw-transaction-api",id:"cash-netcore/raw-transaction-api",title:"\ud83c\udfafRaw Transaction API",description:"For more details visit BCH APIs page.",source:"@site/docs/cash-netcore/raw-transaction-api.mdx",sourceDirName:"cash-netcore",slug:"/cash-netcore/raw-transaction-api",permalink:"/docs/cash-netcore/raw-transaction-api",editUrl:"https://github.com/facebook/docusaurus/tree/main/packages/create-docusaurus/templates/shared/docs/cash-netcore/raw-transaction-api.mdx",tags:[],version:"current",sidebarPosition:9,frontMatter:{sidebar_position:9,id:"raw-transaction-api",title:"\ud83c\udfafRaw Transaction API"},sidebar:"tutorialSidebar",previous:{title:"\ud83c\udfafPrice API",permalink:"/docs/cash-netcore/price-api"},next:{title:"create-a-page",permalink:"/docs/tutorial-basics/create-a-page"}},u={},b=[{value:"\ud83d\udcb0Bulk Decode Script.",id:"bulk-decode-script",level:3},{value:"Decode multiple hex-encoded scripts.",id:"decode-multiple-hex-encoded-scripts",level:4},{value:"\ud83d\udcb0Decode Bulk Raw Transactions.",id:"decode-bulk-raw-transactions",level:3},{value:"Return bulk hex encoded transaction.",id:"return-bulk-hex-encoded-transaction",level:4},{value:"\ud83d\udcb0Decode Single Raw Transaction.",id:"decode-single-raw-transaction",level:3},{value:"Return a JSON object representing the serialized, hex-encoded transaction.",id:"return-a-json-object-representing-the-serialized-hex-encoded-transaction",level:4},{value:"\ud83d\udcb0Decode Single Script.",id:"decode-single-script",level:3},{value:"Decode a hex-encoded script.",id:"decode-a-hex-encoded-script",level:4}],p={toc:b};function m(e){var a=e.components,n=(0,t.Z)(e,i);return(0,d.kt)("wrapper",(0,c.Z)({},p,n,{components:a,mdxType:"MDXLayout"}),(0,d.kt)("div",{className:"admonition admonition-success alert alert--success"},(0,d.kt)("div",{parentName:"div",className:"admonition-heading"},(0,d.kt)("h5",{parentName:"div"},(0,d.kt)("span",{parentName:"h5",className:"admonition-icon"},(0,d.kt)("svg",{parentName:"span",xmlns:"http://www.w3.org/2000/svg",width:"12",height:"16",viewBox:"0 0 12 16"},(0,d.kt)("path",{parentName:"svg",fillRule:"evenodd",d:"M6.5 0C3.48 0 1 2.19 1 5c0 .92.55 2.25 1 3 1.34 2.25 1.78 2.78 2 4v1h5v-1c.22-1.22.66-1.75 2-4 .45-.75 1-2.08 1-3 0-2.81-2.48-5-5.5-5zm3.64 7.48c-.25.44-.47.8-.67 1.11-.86 1.41-1.25 2.06-1.45 3.23-.02.05-.02.11-.02.17H5c0-.06 0-.13-.02-.17-.2-1.17-.59-1.83-1.45-3.23-.2-.31-.42-.67-.67-1.11C2.44 6.78 2 5.65 2 5c0-2.2 2.02-4 4.5-4 1.22 0 2.36.42 3.22 1.19C10.55 2.94 11 3.94 11 5c0 .66-.44 1.78-.86 2.48zM4 14h5c-.23 1.14-1.3 2-2.5 2s-2.27-.86-2.5-2z"}))),"Notes")),(0,d.kt)("div",{parentName:"div",className:"admonition-content"},(0,d.kt)("p",{parentName:"div"},"For more details visit ",(0,d.kt)("a",{parentName:"p",href:"https://api.fullstack.cash/docs/#api-Raw_Transaction"},"BCH APIs")," page."))),(0,d.kt)("pre",null,(0,d.kt)("code",{parentName:"pre",className:"language-jsx"},"//imports\nusing Cash.NetCore.Contracts;\nusing Cash.NetCore.Models.Response.RawTransaction;\n//inject\nprivate readonly IRawTransactionService _rawTransactionService;\n")),(0,d.kt)("h3",{id:"bulk-decode-script"},"\ud83d\udcb0Bulk Decode Script."),(0,d.kt)("h4",{id:"decode-multiple-hex-encoded-scripts"},"Decode multiple hex-encoded scripts."),(0,d.kt)(r.Z,{mdxType:"Tabs"},(0,d.kt)(f.Z,{value:"request",label:"Request",default:!0,mdxType:"TabItem"},(0,d.kt)("pre",null,(0,d.kt)("code",{parentName:"pre",className:"language-jsx"},'//Sample Request \ud83c\udf4e\n  var decodedScripts = await _rawTransactionService!.GetDecodeScriptsAsync(\n          new[]\n          {\n              "01000000013ba3edfd7a7b12b27ac72c3e67768f617fc81bc3888a51323a9fb8aa4b1e5e4a000000006a4730440220540986d1c58d6e76f8f05501c520c38ce55393d0ed7ed3c3a82c69af04221232022058ea43ed6c05fec0eccce749a63332ed4525460105346f11108b9c26df93cd72012103083dfc5a0254613941ddc91af39ff90cd711cdcde03a87b144b883b524660c39ffffffff01807c814a000000001976a914d7e7c4e0b70eaa67ceff9d2823d1bbb9f6df9a5188ac00000000",\n              "01000000013ba3edfd7a7b12b27ac72c3e67768f617fc81bc3888a51323a9fb8aa4b1e5e4a000000006a4730440220540986d1c58d6e76f8f05501c520c38ce55393d0ed7ed3c3a82c69af04221232022058ea43ed6c05fec0eccce749a63332ed4525460105346f11108b9c26df93cd72012103083dfc5a0254613941ddc91af39ff90cd711cdcde03a87b144b883b524660c39ffffffff01807c814a000000001976a914d7e7c4e0b70eaa67ceff9d2823d1bbb9f6df9a5188ac00000000"\n          });\n'))),(0,d.kt)(f.Z,{value:"response",label:"Response",mdxType:"TabItem"},(0,d.kt)("pre",null,(0,d.kt)("code",{parentName:"pre",className:"language-jsx"},'//will return decodedScripts: \ud83c\udf4a\n      var decodedScripts = new List<DecodeScript>()\n        {\n            new DecodeScript\n            {\n                Asm = "0 0 0 59 OP_MIN OP_UNKNOWN OP_UNKNOWN OP_ROLL OP_ROT b27ac72c3e67768f617fc81bc3888a51323a OP_LESSTHAN OP_NOP9 OP_HASH256 1e5e4a000000006a4730440220540986d1c58d6e76f8f05501c520c38ce55393d0ed7ed3c3a82c69af04221232022058ea43ed6c05fec0eccce749a63332ed4525460105346f11108b9c26 OP_UNKNOWN OP_ADD OP_UNKNOWN OP_2SWAP 33 -8142088 10 24916 41ddc91af39ff90cd711cdcde03a87b144b883b524660c39ffffffff01807c814a000000001976a914d7e7c4e0b70eaa67ceff9d2823d1bbb9 OP_UNKNOWN OP_UNKNOWN OP_BOOLAND 1 OP_EQUALVERIFY OP_CHECKSIG 0 0 0 0",\n                Type = "nonstandard",\n                P2Sh = "bitcoincash:pp2jmzk695tg8dxnvxln5ppsrnggw6c8hg0sl8nrxf"\n            },\n            new DecodeScript\n            {\n                Asm = "0 0 0 59 OP_MIN OP_UNKNOWN OP_UNKNOWN OP_ROLL OP_ROT b27ac72c3e67768f617fc81bc3888a51323a OP_LESSTHAN OP_NOP9 OP_HASH256 1e5e4a000000006a4730440220540986d1c58d6e76f8f05501c520c38ce55393d0ed7ed3c3a82c69af04221232022058ea43ed6c05fec0eccce749a63332ed4525460105346f11108b9c26 OP_UNKNOWN OP_ADD OP_UNKNOWN OP_2SWAP 33 -8142088 10 24916 41ddc91af39ff90cd711cdcde03a87b144b883b524660c39ffffffff01807c814a000000001976a914d7e7c4e0b70eaa67ceff9d2823d1bbb9 OP_UNKNOWN OP_UNKNOWN OP_BOOLAND 1 OP_EQUALVERIFY OP_CHECKSIG 0 0 0 0",\n                Type = "nonstandard",\n                P2Sh = "bitcoincash:pp2jmzk695tg8dxnvxln5ppsrnggw6c8hg0sl8nrxf"\n            }\n        };\n'))),(0,d.kt)(f.Z,{value:"...",label:"...",mdxType:"TabItem"},"\ud83c\udf4c For more information Check out  ",(0,d.kt)("a",{target:"_blank",href:"https://api.fullstack.cash/docs/#api-Raw_Transaction-Bulk_Decode_Script"},"Bulk Decode Script."))),(0,d.kt)("h3",{id:"decode-bulk-raw-transactions"},"\ud83d\udcb0Decode Bulk Raw Transactions."),(0,d.kt)("h4",{id:"return-bulk-hex-encoded-transaction"},"Return bulk hex encoded transaction."),(0,d.kt)(r.Z,{mdxType:"Tabs"},(0,d.kt)(f.Z,{value:"request",label:"Request",default:!0,mdxType:"TabItem"},(0,d.kt)("pre",null,(0,d.kt)("code",{parentName:"pre",className:"language-jsx"},'//Sample Request \ud83c\udf4e\n   var decodedRawTransactions = await _rawTransactionService!.GetDecodeBulkRawTransactionsAsync(\n            new[]\n            {\n                "01000000013ba3edfd7a7b12b27ac72c3e67768f617fc81bc3888a51323a9fb8aa4b1e5e4a000000006a4730440220540986d1c58d6e76f8f05501c520c38ce55393d0ed7ed3c3a82c69af04221232022058ea43ed6c05fec0eccce749a63332ed4525460105346f11108b9c26df93cd72012103083dfc5a0254613941ddc91af39ff90cd711cdcde03a87b144b883b524660c39ffffffff01807c814a000000001976a914d7e7c4e0b70eaa67ceff9d2823d1bbb9f6df9a5188ac00000000",\n                "01000000013ba3edfd7a7b12b27ac72c3e67768f617fc81bc3888a51323a9fb8aa4b1e5e4a000000006a4730440220540986d1c58d6e76f8f05501c520c38ce55393d0ed7ed3c3a82c69af04221232022058ea43ed6c05fec0eccce749a63332ed4525460105346f11108b9c26df93cd72012103083dfc5a0254613941ddc91af39ff90cd711cdcde03a87b144b883b524660c39ffffffff01807c814a000000001976a914d7e7c4e0b70eaa67ceff9d2823d1bbb9f6df9a5188ac00000000"\n            });\n'))),(0,d.kt)(f.Z,{value:"response",label:"Response",mdxType:"TabItem"},(0,d.kt)("pre",null,(0,d.kt)("code",{parentName:"pre",className:"language-jsx"},'//will return decodedRawTransactions: \ud83c\udf4a\n  var decodedRawTransactions = new List<RawTransaction>\n        {\n            new()\n            {\n                TxId = "d86c34adaeae19171fd98fe0ffd89bfb92a1e6f0339f5e4f18d837715fd25758",\n                Hash = "d86c34adaeae19171fd98fe0ffd89bfb92a1e6f0339f5e4f18d837715fd25758",\n                Version = 1,\n                Size = 191,\n                LockTime = 0,\n                RawTransactionVin = new List<RawTransactionVin>\n                {\n                    new()\n                    {\n                        Txid = "4a5e1e4baab89f3a32518a88c31bc87f618f76673e2cc77ab2127b7afdeda33b",\n                        Vout = 0,\n                        ScriptSig = new ScriptSig\n                        {\n                            Asm =\n                                "30440220540986d1c58d6e76f8f05501c520c38ce55393d0ed7ed3c3a82c69af04221232022058ea43ed6c05fec0eccce749a63332ed4525460105346f11108b9c26df93cd72[ALL] 03083dfc5a0254613941ddc91af39ff90cd711cdcde03a87b144b883b524660c39",\n                            Hex =\n                                "4730440220540986d1c58d6e76f8f05501c520c38ce55393d0ed7ed3c3a82c69af04221232022058ea43ed6c05fec0eccce749a63332ed4525460105346f11108b9c26df93cd72012103083dfc5a0254613941ddc91af39ff90cd711cdcde03a87b144b883b524660c39"\n                        },\n                        Sequence = 4294967295\n                    }\n                },\n                RawTransactionVout = new List<RawTransactionVout>\n                {\n                    new()\n                    {\n                        Value = (decimal) 12.5,\n                        N = 0,\n                        ScriptPubKey = new ScriptPubKey\n                        {\n                            Asm =\n                                "OP_DUP OP_HASH160 d7e7c4e0b70eaa67ceff9d2823d1bbb9f6df9a51 OP_EQUALVERIFY OP_CHECKSIG",\n                            Hex = "76a914d7e7c4e0b70eaa67ceff9d2823d1bbb9f6df9a5188ac",\n                            ReqSigs = 1,\n                            Type = "pubkeyhash",\n                            Addresses = new List<string>\n                            {\n                                "bitcoincash:qrt7038qku825e7wl7wjsg73hwuldhu62yz9t0u9ng"\n                            }\n                        }\n                    }\n                }\n            },\n            new()\n            {\n                TxId = "d86c34adaeae19171fd98fe0ffd89bfb92a1e6f0339f5e4f18d837715fd25758",\n                Hash = "d86c34adaeae19171fd98fe0ffd89bfb92a1e6f0339f5e4f18d837715fd25758",\n                Version = 1,\n                Size = 191,\n                LockTime = 0,\n                RawTransactionVin = new List<RawTransactionVin>\n                {\n                    new()\n                    {\n                        Txid = "4a5e1e4baab89f3a32518a88c31bc87f618f76673e2cc77ab2127b7afdeda33b",\n                        Vout = 0,\n                        ScriptSig = new ScriptSig\n                        {\n                            Asm =\n                                "30440220540986d1c58d6e76f8f05501c520c38ce55393d0ed7ed3c3a82c69af04221232022058ea43ed6c05fec0eccce749a63332ed4525460105346f11108b9c26df93cd72[ALL] 03083dfc5a0254613941ddc91af39ff90cd711cdcde03a87b144b883b524660c39",\n                            Hex =\n                                "4730440220540986d1c58d6e76f8f05501c520c38ce55393d0ed7ed3c3a82c69af04221232022058ea43ed6c05fec0eccce749a63332ed4525460105346f11108b9c26df93cd72012103083dfc5a0254613941ddc91af39ff90cd711cdcde03a87b144b883b524660c39"\n                        },\n                        Sequence = 4294967295\n                    }\n                },\n                RawTransactionVout = new List<RawTransactionVout>\n                {\n                    new()\n                    {\n                        Value = (decimal) 12.5,\n                        N = 0,\n                        ScriptPubKey = new ScriptPubKey\n                        {\n                            Asm =\n                                "OP_DUP OP_HASH160 d7e7c4e0b70eaa67ceff9d2823d1bbb9f6df9a51 OP_EQUALVERIFY OP_CHECKSIG",\n                            Hex = "76a914d7e7c4e0b70eaa67ceff9d2823d1bbb9f6df9a5188ac",\n                            ReqSigs = 1,\n                            Type = "pubkeyhash",\n                            Addresses = new List<string>\n                            {\n                                "bitcoincash:qrt7038qku825e7wl7wjsg73hwuldhu62yz9t0u9ng"\n                            }\n                        }\n                    }\n                }\n            }\n        };\n'))),(0,d.kt)(f.Z,{value:"...",label:"...",mdxType:"TabItem"},"\ud83c\udf4c For more information Check out  ",(0,d.kt)("a",{target:"_blank",href:"https://api.fullstack.cash/docs/#api-Raw_Transaction-Decode_Bulk_Raw_Transactions"},"Decode Bulk Raw Transactions."))),(0,d.kt)("h3",{id:"decode-single-raw-transaction"},"\ud83d\udcb0Decode Single Raw Transaction."),(0,d.kt)("h4",{id:"return-a-json-object-representing-the-serialized-hex-encoded-transaction"},"Return a JSON object representing the serialized, hex-encoded transaction."),(0,d.kt)(r.Z,{mdxType:"Tabs"},(0,d.kt)(f.Z,{value:"request",label:"Request",default:!0,mdxType:"TabItem"},(0,d.kt)("pre",null,(0,d.kt)("code",{parentName:"pre",className:"language-jsx"},'//Sample Request \ud83c\udf4e\n var decodedRawTransaction = await _rawTransactionService!.GetDecodeRawTransactionAsync(\n            "02000000010e991f7ccec410f27d333f737f149b5d3be6728687da81072e638aed0063a176010000006b483045022100cd20443b0af090053450bc4ab00d563d4ac5955bb36e0135b00b8a96a19f233302205047f2c70a08c6ef4b76f2d198b33a31d17edfaa7e1e9e865894da0d396009354121024d4e7f522f67105b7bf5f9dbe557e7b2244613fdfcd6fe09304f93877328f6beffffffff02a0860100000000001976a9140ee020c07f39526ac5505c54fa1ab98490979b8388acb5f0f70b000000001976a9143a9b2b0c12fe722fcf653b6ef5dcc38732d6ff5188ac00000000");\n'))),(0,d.kt)(f.Z,{value:"response",label:"Response",mdxType:"TabItem"},(0,d.kt)("pre",null,(0,d.kt)("code",{parentName:"pre",className:"language-jsx"},'//will return decodedRawTransaction: \ud83c\udf4a\n   var decodedRawTransaction = new RawTransaction\n        {\n            TxId = "d86c34adaeae19171fd98fe0ffd89bfb92a1e6f0339f5e4f18d837715fd25758",\n            Hash = "d86c34adaeae19171fd98fe0ffd89bfb92a1e6f0339f5e4f18d837715fd25758",\n            Version = 1,\n            Size = 191,\n            LockTime = 0,\n            RawTransactionVin = new List<RawTransactionVin>\n            {\n                new()\n                {\n                    Txid = "4a5e1e4baab89f3a32518a88c31bc87f618f76673e2cc77ab2127b7afdeda33b",\n                    Vout = 0,\n                    ScriptSig = new ScriptSig\n                    {\n                        Asm =\n                            "30440220540986d1c58d6e76f8f05501c520c38ce55393d0ed7ed3c3a82c69af04221232022058ea43ed6c05fec0eccce749a63332ed4525460105346f11108b9c26df93cd72[ALL] 03083dfc5a0254613941ddc91af39ff90cd711cdcde03a87b144b883b524660c39",\n                        Hex =\n                            "4730440220540986d1c58d6e76f8f05501c520c38ce55393d0ed7ed3c3a82c69af04221232022058ea43ed6c05fec0eccce749a63332ed4525460105346f11108b9c26df93cd72012103083dfc5a0254613941ddc91af39ff90cd711cdcde03a87b144b883b524660c39"\n                    },\n                    Sequence = 4294967295\n                }\n            },\n            RawTransactionVout = new List<RawTransactionVout>\n            {\n                new()\n                {\n                    Value = (decimal) 12.5,\n                    N = 0,\n                    ScriptPubKey = new ScriptPubKey\n                    {\n                        Asm =\n                            "OP_DUP OP_HASH160 d7e7c4e0b70eaa67ceff9d2823d1bbb9f6df9a51 OP_EQUALVERIFY OP_CHECKSIG",\n                        Hex = "76a914d7e7c4e0b70eaa67ceff9d2823d1bbb9f6df9a5188ac",\n                        ReqSigs = 1,\n                        Type = "pubkeyhash",\n                        Addresses = new List<string>\n                        {\n                            "bitcoincash:qrt7038qku825e7wl7wjsg73hwuldhu62yz9t0u9ng"\n                        }\n                    }\n                }\n            }\n        };\n'))),(0,d.kt)(f.Z,{value:"...",label:"...",mdxType:"TabItem"},"\ud83c\udf4c For more information Check out  ",(0,d.kt)("a",{target:"_blank",href:"https://api.fullstack.cash/docs/#api-Raw_Transaction-Decode_Single_Raw_Transaction"},"Decode Single Raw Transaction."))),(0,d.kt)("h3",{id:"decode-single-script"},"\ud83d\udcb0Decode Single Script."),(0,d.kt)("h4",{id:"decode-a-hex-encoded-script"},"Decode a hex-encoded script."),(0,d.kt)(r.Z,{mdxType:"Tabs"},(0,d.kt)(f.Z,{value:"request",label:"Request",default:!0,mdxType:"TabItem"},(0,d.kt)("pre",null,(0,d.kt)("code",{parentName:"pre",className:"language-jsx"},'//Sample Request \ud83c\udf4e\n  var decodedScript = await _rawTransactionService!.GetDecodeScriptAsync(\n            "4830450221009a51e00ec3524a7389592bc27bea4af5104a59510f5f0cfafa64bbd5c164ca2e02206c2a8bbb47eabdeed52f17d7df668d521600286406930426e3a9415fe10ed592012102e6e1423f7abde8b70bca3e78a7d030e5efabd3eb35c19302542b5fe7879c1a16");\n\n'))),(0,d.kt)(f.Z,{value:"response",label:"Response",mdxType:"TabItem"},(0,d.kt)("pre",null,(0,d.kt)("code",{parentName:"pre",className:"language-jsx"},'//will return decodedScript: \ud83c\udf4a\n   var decodedScript = new DecodeScript\n        {\n           Asm = "30450221009a51e00ec3524a7389592bc27bea4af5104a59510f5f0cfafa64bbd5c164ca2e02206c2a8bbb47eabdeed52f17d7df668d521600286406930426e3a9415fe10ed59201 02e6e1423f7abde8b70bca3e78a7d030e5efabd3eb35c19302542b5fe7879c1a16",\n           Type = "nonstandard",\n           P2Sh = "bitcoincash:pqwndulzwft8dlmqrteqyc9hf823xr3lcc7ypt74ts"\n        };\n'))),(0,d.kt)(f.Z,{value:"...",label:"...",mdxType:"TabItem"},"\ud83c\udf4c For more information Check out  ",(0,d.kt)("a",{target:"_blank",href:"https://api.fullstack.cash/docs/#api-Raw_Transaction-Decode_Single_Script"},"Decode Single Script."))))}m.isMDXComponent=!0}}]);