"use strict";(self.webpackChunkmy_website=self.webpackChunkmy_website||[]).push([[2150],{3905:function(e,a,n){n.d(a,{Zo:function(){return l},kt:function(){return u}});var t=n(7294);function c(e,a,n){return a in e?Object.defineProperty(e,a,{value:n,enumerable:!0,configurable:!0,writable:!0}):e[a]=n,e}function d(e,a){var n=Object.keys(e);if(Object.getOwnPropertySymbols){var t=Object.getOwnPropertySymbols(e);a&&(t=t.filter((function(a){return Object.getOwnPropertyDescriptor(e,a).enumerable}))),n.push.apply(n,t)}return n}function r(e){for(var a=1;a<arguments.length;a++){var n=null!=arguments[a]?arguments[a]:{};a%2?d(Object(n),!0).forEach((function(a){c(e,a,n[a])})):Object.getOwnPropertyDescriptors?Object.defineProperties(e,Object.getOwnPropertyDescriptors(n)):d(Object(n)).forEach((function(a){Object.defineProperty(e,a,Object.getOwnPropertyDescriptor(n,a))}))}return e}function b(e,a){if(null==e)return{};var n,t,c=function(e,a){if(null==e)return{};var n,t,c={},d=Object.keys(e);for(t=0;t<d.length;t++)n=d[t],a.indexOf(n)>=0||(c[n]=e[n]);return c}(e,a);if(Object.getOwnPropertySymbols){var d=Object.getOwnPropertySymbols(e);for(t=0;t<d.length;t++)n=d[t],a.indexOf(n)>=0||Object.prototype.propertyIsEnumerable.call(e,n)&&(c[n]=e[n])}return c}var s=t.createContext({}),f=function(e){var a=t.useContext(s),n=a;return e&&(n="function"==typeof e?e(a):r(r({},a),e)),n},l=function(e){var a=f(e.components);return t.createElement(s.Provider,{value:a},e.children)},i={inlineCode:"code",wrapper:function(e){var a=e.children;return t.createElement(t.Fragment,{},a)}},o=t.forwardRef((function(e,a){var n=e.components,c=e.mdxType,d=e.originalType,s=e.parentName,l=b(e,["components","mdxType","originalType","parentName"]),o=f(n),u=c,p=o["".concat(s,".").concat(u)]||o[u]||i[u]||d;return n?t.createElement(p,r(r({ref:a},l),{},{components:n})):t.createElement(p,r({ref:a},l))}));function u(e,a){var n=arguments,c=a&&a.mdxType;if("string"==typeof e||c){var d=n.length,r=new Array(d);r[0]=o;var b={};for(var s in a)hasOwnProperty.call(a,s)&&(b[s]=a[s]);b.originalType=e,b.mdxType="string"==typeof e?e:c,r[1]=b;for(var f=2;f<d;f++)r[f]=n[f];return t.createElement.apply(null,r)}return t.createElement.apply(null,n)}o.displayName="MDXCreateElement"},8215:function(e,a,n){n.d(a,{Z:function(){return c}});var t=n(7294);function c(e){var a=e.children,n=e.hidden,c=e.className;return t.createElement("div",{role:"tabpanel",hidden:n,className:c},a)}},9877:function(e,a,n){n.d(a,{Z:function(){return l}});var t=n(3117),c=n(7294),d=n(2389),r=n(9575),b=n(6010),s="tabItem_LplD";function f(e){var a,n,d,f=e.lazy,l=e.block,i=e.defaultValue,o=e.values,u=e.groupId,p=e.className,m=c.Children.map(e.children,(function(e){if((0,c.isValidElement)(e)&&void 0!==e.props.value)return e;throw new Error("Docusaurus error: Bad <Tabs> child <"+("string"==typeof e.type?e.type:e.type.name)+'>: all children of the <Tabs> component should be <TabItem>, and every <TabItem> should have a unique "value" prop.')})),k=null!=o?o:m.map((function(e){var a=e.props;return{value:a.value,label:a.label,attributes:a.attributes}})),v=(0,r.lx)(k,(function(e,a){return e.value===a.value}));if(v.length>0)throw new Error('Docusaurus error: Duplicate values "'+v.map((function(e){return e.value})).join(", ")+'" found in <Tabs>. Every value needs to be unique.');var T=null===i?i:null!=(a=null!=i?i:null==(n=m.find((function(e){return e.props.default})))?void 0:n.props.value)?a:null==(d=m[0])?void 0:d.props.value;if(null!==T&&!k.some((function(e){return e.value===T})))throw new Error('Docusaurus error: The <Tabs> has a defaultValue "'+T+'" but none of its children has the corresponding value. Available values are: '+k.map((function(e){return e.value})).join(", ")+". If you intend to show no default tab, use defaultValue={null} instead.");var y=(0,r.UB)(),S=y.tabGroupChoices,h=y.setTabGroupChoices,g=(0,c.useState)(T),w=g[0],x=g[1],P=[],I=(0,r.o5)().blockElementScrollPositionUntilNextRender;if(null!=u){var N=S[u];null!=N&&N!==w&&k.some((function(e){return e.value===N}))&&x(N)}var L=function(e){var a=e.currentTarget,n=P.indexOf(a),t=k[n].value;t!==w&&(I(a),x(t),null!=u&&h(u,t))},_=function(e){var a,n=null;switch(e.key){case"ArrowRight":var t=P.indexOf(e.currentTarget)+1;n=P[t]||P[0];break;case"ArrowLeft":var c=P.indexOf(e.currentTarget)-1;n=P[c]||P[P.length-1]}null==(a=n)||a.focus()};return c.createElement("div",{className:"tabs-container"},c.createElement("ul",{role:"tablist","aria-orientation":"horizontal",className:(0,b.Z)("tabs",{"tabs--block":l},p)},k.map((function(e){var a=e.value,n=e.label,d=e.attributes;return c.createElement("li",(0,t.Z)({role:"tab",tabIndex:w===a?0:-1,"aria-selected":w===a,key:a,ref:function(e){return P.push(e)},onKeyDown:_,onFocus:L,onClick:L},d,{className:(0,b.Z)("tabs__item",s,null==d?void 0:d.className,{"tabs__item--active":w===a})}),null!=n?n:a)}))),f?(0,c.cloneElement)(m.filter((function(e){return e.props.value===w}))[0],{className:"margin-vert--md"}):c.createElement("div",{className:"margin-vert--md"},m.map((function(e,a){return(0,c.cloneElement)(e,{key:a,hidden:e.props.value!==w})}))))}function l(e){var a=(0,d.Z)();return c.createElement(f,(0,t.Z)({key:String(a)},e))}},1472:function(e,a,n){n.r(a),n.d(a,{assets:function(){return o},contentTitle:function(){return l},default:function(){return m},frontMatter:function(){return f},metadata:function(){return i},toc:function(){return u}});var t=n(3117),c=n(102),d=(n(7294),n(3905)),r=n(9877),b=n(8215),s=["components"],f={sidebar_position:7,id:"psfslp-api",title:"\ud83c\udfafPSF SLP API"},l=void 0,i={unversionedId:"cash-netcore/psfslp-api",id:"cash-netcore/psfslp-api",title:"\ud83c\udfafPSF SLP API",description:"For more details visit BCH APIs page.",source:"@site/docs/cash-netcore/psfslp-api.mdx",sourceDirName:"cash-netcore",slug:"/cash-netcore/psfslp-api",permalink:"/docs/cash-netcore/psfslp-api",editUrl:"https://github.com/facebook/docusaurus/tree/main/packages/create-docusaurus/templates/shared/docs/cash-netcore/psfslp-api.mdx",tags:[],version:"current",sidebarPosition:7,frontMatter:{sidebar_position:7,id:"psfslp-api",title:"\ud83c\udfafPSF SLP API"},sidebar:"tutorialSidebar",previous:{title:"\ud83c\udfafMining API",permalink:"/docs/cash-netcore/mining-api"},next:{title:"create-a-page",permalink:"/docs/tutorial-basics/create-a-page"}},o={},u=[{value:"\ud83d\udcb0Indexer Status.",id:"indexer-status",level:3},{value:"Return SLP indexer status",id:"return-slp-indexer-status",level:4},{value:"\ud83d\udcb0List stats for a single slp token.",id:"list-stats-for-a-single-slp-token",level:3},{value:"Return list stats for a single slp token.",id:"return-list-stats-for-a-single-slp-token",level:4},{value:"\ud83d\udcb0SLP balance for address.",id:"slp-balance-for-address",level:3},{value:"Return SLP balance for address",id:"return-slp-balance-for-address",level:4},{value:"\ud83d\udcb0SLP transaction data.",id:"slp-transaction-data",level:3},{value:"Return SLP balance for address",id:"return-slp-balance-for-address-1",level:4}],p={toc:u};function m(e){var a=e.components,n=(0,c.Z)(e,s);return(0,d.kt)("wrapper",(0,t.Z)({},p,n,{components:a,mdxType:"MDXLayout"}),(0,d.kt)("div",{className:"admonition admonition-success alert alert--success"},(0,d.kt)("div",{parentName:"div",className:"admonition-heading"},(0,d.kt)("h5",{parentName:"div"},(0,d.kt)("span",{parentName:"h5",className:"admonition-icon"},(0,d.kt)("svg",{parentName:"span",xmlns:"http://www.w3.org/2000/svg",width:"12",height:"16",viewBox:"0 0 12 16"},(0,d.kt)("path",{parentName:"svg",fillRule:"evenodd",d:"M6.5 0C3.48 0 1 2.19 1 5c0 .92.55 2.25 1 3 1.34 2.25 1.78 2.78 2 4v1h5v-1c.22-1.22.66-1.75 2-4 .45-.75 1-2.08 1-3 0-2.81-2.48-5-5.5-5zm3.64 7.48c-.25.44-.47.8-.67 1.11-.86 1.41-1.25 2.06-1.45 3.23-.02.05-.02.11-.02.17H5c0-.06 0-.13-.02-.17-.2-1.17-.59-1.83-1.45-3.23-.2-.31-.42-.67-.67-1.11C2.44 6.78 2 5.65 2 5c0-2.2 2.02-4 4.5-4 1.22 0 2.36.42 3.22 1.19C10.55 2.94 11 3.94 11 5c0 .66-.44 1.78-.86 2.48zM4 14h5c-.23 1.14-1.3 2-2.5 2s-2.27-.86-2.5-2z"}))),"Notes")),(0,d.kt)("div",{parentName:"div",className:"admonition-content"},(0,d.kt)("p",{parentName:"div"},"For more details visit ",(0,d.kt)("a",{parentName:"p",href:"https://api.fullstack.cash/docs/#api-PSF_SLP"},"BCH APIs")," page."))),(0,d.kt)("pre",null,(0,d.kt)("code",{parentName:"pre",className:"language-jsx"},"//imports\nusing Cash.NetCore.Contracts;\nusing Cash.NetCore.Models.Response.PsfSlp;\n\n//inject\nprivate readonly IPsfSlpService _psfSlpService;\n")),(0,d.kt)("h3",{id:"indexer-status"},"\ud83d\udcb0Indexer Status."),(0,d.kt)("h4",{id:"return-slp-indexer-status"},"Return SLP indexer status"),(0,d.kt)(r.Z,{mdxType:"Tabs"},(0,d.kt)(b.Z,{value:"request",label:"Request",default:!0,mdxType:"TabItem"},(0,d.kt)("pre",null,(0,d.kt)("code",{parentName:"pre",className:"language-jsx"},"//Sample Request \ud83c\udf4e\n    var indexerStatus = await _psfSlpService!.GetIndexerStatusAsync();\n"))),(0,d.kt)(b.Z,{value:"response",label:"Response",mdxType:"TabItem"},(0,d.kt)("pre",null,(0,d.kt)("code",{parentName:"pre",className:"language-jsx"},"//will return networkHash: \ud83c\udf4a\n  var indexerStatus = new IndexerStatus\n        {\n            Status = new Indexes\n            {\n                StartBlockHeight = 543376,\n                SyncedBlockHeight = 734240,\n                ChainBlockHeight = 733701\n            }\n        };\n"))),(0,d.kt)(b.Z,{value:"...",label:"...",mdxType:"TabItem"},"\ud83c\udf4c For more information Check out  ",(0,d.kt)("a",{target:"_blank",href:"https://api.fullstack.cash/docs/#api-PSF_SLP-SLP_indexer_status."},"Indexer Status."))),(0,d.kt)("h3",{id:"list-stats-for-a-single-slp-token"},"\ud83d\udcb0List stats for a single slp token."),(0,d.kt)("h4",{id:"return-list-stats-for-a-single-slp-token"},"Return list stats for a single slp token."),(0,d.kt)(r.Z,{mdxType:"Tabs"},(0,d.kt)(b.Z,{value:"request",label:"Request",default:!0,mdxType:"TabItem"},(0,d.kt)("pre",null,(0,d.kt)("code",{parentName:"pre",className:"language-jsx"},'//Sample Request \ud83c\udf4e\n   var tokenStatus = await _psfSlpService!.GetTokenStatusAsync(\n            "a4fb5c2da1aa064e25018a43f9165040071d9e984ba190c222a7f59053af84b2");\n'))),(0,d.kt)(b.Z,{value:"response",label:"Response",mdxType:"TabItem"},(0,d.kt)("pre",null,(0,d.kt)("code",{parentName:"pre",className:"language-jsx"},'//will return PsfSlpTokenStatus: \ud83c\udf4a\n var tokenStatus = new PsfSlpTokenStatus\n        {\n            TokenData = new TokenData\n            {\n                Type = 1,\n                Ticker = "TROUT",\n                Name = "Trout\'s test token",\n                TokenId = "a4fb5c2da1aa064e25018a43f9165040071d9e984ba190c222a7f59053af84b2",\n                DocumentUri = "troutsblog.com",\n                DocumentHash = "",\n                Decimals = 2,\n                MintBatonIsActive = true,\n                TokensInCirculationBn = "100097954886",\n                TokensInCirculationStr = "100097954886",\n                BlockCreated = 622414,\n                TotalBurned = "2045114",\n                TotalMinted = "100100000000"\n            }\n        };\n'))),(0,d.kt)(b.Z,{value:"...",label:"...",mdxType:"TabItem"},"\ud83c\udf4c For more information Check out  ",(0,d.kt)("a",{target:"_blank",href:"https://api.fullstack.cash/docs/#api-PSF_SLP-List_stats_for_a_single_slp_token."},"List stats for a single slp token."))),(0,d.kt)("h3",{id:"slp-balance-for-address"},"\ud83d\udcb0SLP balance for address."),(0,d.kt)("h4",{id:"return-slp-balance-for-address"},"Return SLP balance for address"),(0,d.kt)(r.Z,{mdxType:"Tabs"},(0,d.kt)(b.Z,{value:"request",label:"Request",default:!0,mdxType:"TabItem"},(0,d.kt)("pre",null,(0,d.kt)("code",{parentName:"pre",className:"language-jsx"},'//Sample Request \ud83c\udf4e\n   var balances = await  _psfSlpService!.GetPsfSlpBalanceAsync(\n            "bitcoincash:qzmd5vxgh9m22m6fgvm57yd6kjnjl9qnwywsf3583n");\n'))),(0,d.kt)(b.Z,{value:"response",label:"Response",mdxType:"TabItem"},(0,d.kt)("pre",null,(0,d.kt)("code",{parentName:"pre",className:"language-jsx"},'//will return PsfSlpBalance: \ud83c\udf4a\n   var balances = new PsfSlpBalance\n        {\n            Balance = new PsfSlpBalanceInfo\n            {\n                UTxos = new List<PsfSlpBalanceUtxos>\n                {\n                    new()\n                    {\n                        Txid = "afa539c5b7dda42f1ada1d19cc3f0e4aeb3eb97bb681484e1b0b5eb22b9a7f3f",\n                        Vout = 1,\n                        Type = "token",\n                        TokenType = 1,\n                        Qty = "1",\n                        TokenId = "f1d0631716fefeb597df18fe2eea5d12e2cc86af0e4604e7255077626aaec1f8",\n                        Address = "bitcoincash:qzmd5vxgh9m22m6fgvm57yd6kjnjl9qnwywsf3583n",\n                        Decimals = 0,\n                        EffectiveQty = "1",\n                        Value = (decimal) 0.00000546\n                    },\n                    new()\n                    {\n                        Txid = "9bef6a568a026c479b6ba891fa01d0acb3331e85d19bbb910282a6a9fb27e931",\n                        Vout = 1,\n                        Type = "token",\n                        TokenType = 1,\n                        Qty = "0",\n                        TokenId = "301d4ef718298369815ee98618acf548aeda763a7a6221978955312fa2a476b4",\n                        Address = "bitcoincash:qzmd5vxgh9m22m6fgvm57yd6kjnjl9qnwywsf3583n",\n                        Decimals = 0,\n                        EffectiveQty = "0",\n                        Value = (decimal) 0.00000546\n                    }...(N)\n                },\n                Txs = new List<PsfSlpTxs>\n                {\n                    new()\n                    {\n                        Txid = "497a892af5c1ee4d7cee9348ad261453bcdaedc65edd5383c42f21b304a7f6e1",\n                        Height = 669965\n                    },\n                    new()\n                    {\n                        Txid = "e9e711f10890dd6bc59b71433dbb34a09734f5a0d8e04d6bd338a7791a488b4b",\n                        Height = 669965\n                    },\n                    new()\n                    {\n                        Txid = "afa539c5b7dda42f1ada1d19cc3f0e4aeb3eb97bb681484e1b0b5eb22b9a7f3f",\n                        Height = 670912\n                    },\n                    new()\n                    {\n                        Txid = "2d2b9a887f6f98065575eec2cf9c69940ec41653a0975c084d40b7737cf74720",\n                        Height = 678619\n                    }...(N)\n                },\n                Balances = new List<PsfSlpBalanceDetail>\n                {\n                    new()\n                    {\n                        TokenId = "f1d0631716fefeb597df18fe2eea5d12e2cc86af0e4604e7255077626aaec1f8",\n                        Qty = "1"\n                    },\n                    new()\n                    {\n                        TokenId = "301d4ef718298369815ee98618acf548aeda763a7a6221978955312fa2a476b4",\n                        Qty = "0"\n                    },\n                    new()\n                    {\n                        TokenId = "02e0c4057b9d5962ca5d51d4fa2bd814e11e7e3f98afcf5b19be7966c68027ad",\n                        Qty = "0"\n                    },\n                    new()\n                    {\n                        TokenId = "2d860662801067828be3c4f504ce31b2a1a36c2cdbc6d92f6160920f66b0a9ee",\n                        Qty = "88"\n                    },\n                    new()\n                    {\n                        TokenId = "7a427a156fe70f83d3ccdd17e75804cc0df8c95c64ce04d256b3851385002a0b",\n                        Qty = "1"\n                    }\n                }\n            }\n        };\n'))),(0,d.kt)(b.Z,{value:"...",label:"...",mdxType:"TabItem"},"\ud83c\udf4c For more information Check out  ",(0,d.kt)("a",{target:"_blank",href:"https://api.fullstack.cash/docs/#api-PSF_SLP-SLP_balance_for_address."},"SLP balance for address."))),(0,d.kt)("h3",{id:"slp-transaction-data"},"\ud83d\udcb0SLP transaction data."),(0,d.kt)("h4",{id:"return-slp-balance-for-address-1"},"Return SLP balance for address"),(0,d.kt)(r.Z,{mdxType:"Tabs"},(0,d.kt)(b.Z,{value:"request",label:"Request",default:!0,mdxType:"TabItem"},(0,d.kt)("pre",null,(0,d.kt)("code",{parentName:"pre",className:"language-jsx"},'//Sample Request \ud83c\udf4e\n var balanceInfo = await _psfSlpService!.GetPsfSlpTransactionDataAsync(\n            "d5ef5c3d16584f2840a572166607dede9a67f74160047ac03c7c27840c891a5c");\n'))),(0,d.kt)(b.Z,{value:"response",label:"Response",mdxType:"TabItem"},(0,d.kt)("pre",null,(0,d.kt)("code",{parentName:"pre",className:"language-jsx"},'//will return PsfSlpBalance: \ud83c\udf4a\n     var transaction = new PsfSlpTransaction\n        {\n            TxData = new PsfSlpTransactionData\n            {\n                TxId = "d5ef5c3d16584f2840a572166607dede9a67f74160047ac03c7c27840c891a5c",\n                Hash = "d5ef5c3d16584f2840a572166607dede9a67f74160047ac03c7c27840c891a5c",\n                Version = 2,\n                Size = 766,\n                LockTime = 0,\n                Vin = new List<PsfSlpTransactionDataVin>\n                {\n                    new()\n                    {\n                        Txid = "78426a9b089a52e93aac82b1ae06aae160116f0e65453ffcaf27b012e3d089c8",\n                        Vout = 1,\n                        ScriptSig = new ScriptSig\n                        {\n                            Asm =\n                                "3044022070ec2c752a8ab70dddbda98943045de9c3e66b7721448d16921134f932552c4502205f855f703f030bacb1ffc6dccf0cff6f1aeaf6b89ee2a6c7bb54829769d8d3aa[ALL|FORKID] 0379cb3d35c712cebbf609d2ce6b1c0d4b70dd27bbb3a9b0bd5491a5954aeb4687",\n                            Hex =\n                                "473044022070ec2c752a8ab70dddbda98943045de9c3e66b7721448d16921134f932552c4502205f855f703f030bacb1ffc6dccf0cff6f1aeaf6b89ee2a6c7bb54829769d8d3aa41210379cb3d35c712cebbf609d2ce6b1c0d4b70dd27bbb3a9b0bd5491a5954aeb4687"\n                        },\n                        Sequence = 4294967295,\n                        Address = "bitcoincash:qzmd5vxgh9m22m6fgvm57yd6kjnjl9qnwywsf3583n",\n                        Value = (decimal) 0.00000546,\n                        TokenQtyStr = "3",\n                        TokenQty = 3,\n                        TokenId = "02e0c4057b9d5962ca5d51d4fa2bd814e11e7e3f98afcf5b19be7966c68027ad"\n                    },\n                    new()\n                    {\n                        Txid = "d723a5dd57c48ea9d69b248ba586e69d49084c970956db520d263f9b6d59ceb0",\n                        Vout = 1,\n                        ScriptSig = new ScriptSig\n                        {\n                            Asm =\n                                "304402206f510267fafb26c2a808381c3b9de6af02eb0b8fd21a951aa56f1cf6652770400220410acf9b8b0ed242833492b5973020eeef78d3dcd81f9f25e9e1d3d137274d30[ALL|FORKID] 0379cb3d35c712cebbf609d2ce6b1c0d4b70dd27bbb3a9b0bd5491a5954aeb4687",\n                            Hex =\n                                "47304402206f510267fafb26c2a808381c3b9de6af02eb0b8fd21a951aa56f1cf6652770400220410acf9b8b0ed242833492b5973020eeef78d3dcd81f9f25e9e1d3d137274d3041210379cb3d35c712cebbf609d2ce6b1c0d4b70dd27bbb3a9b0bd5491a5954aeb4687"\n                        },\n                        Sequence = 4294967295,\n                        Address = "bitcoincash:qzmd5vxgh9m22m6fgvm57yd6kjnjl9qnwywsf3583n",\n                        Value = (decimal) 0.00000546,\n                        TokenQtyStr = "0",\n                        TokenQty = 0,\n                        TokenId = "02e0c4057b9d5962ca5d51d4fa2bd814e11e7e3f98afcf5b19be7966c68027ad"\n                    },\n                    new()\n                    {\n                        Txid = "fb2a4baa0aa1e69609d373b5b53770fcea2bb7c899c9ecbe51bfa193d05cce5b",\n                        Vout = 2,\n                        ScriptSig = new ScriptSig\n                        {\n                            Asm =\n                                "3045022100b7abe253b84f19407b223d57b47ff4e472747feec0797c545598c5eb7fe5dc5f0220160e9410deae317bfaf51f62e5c82e83ce658685da506e3ab62e435e0305fb31[ALL|FORKID] 0379cb3d35c712cebbf609d2ce6b1c0d4b70dd27bbb3a9b0bd5491a5954aeb4687",\n                            Hex =\n                                "483045022100b7abe253b84f19407b223d57b47ff4e472747feec0797c545598c5eb7fe5dc5f0220160e9410deae317bfaf51f62e5c82e83ce658685da506e3ab62e435e0305fb3141210379cb3d35c712cebbf609d2ce6b1c0d4b70dd27bbb3a9b0bd5491a5954aeb4687"\n                        },\n                        Sequence = 4294967295,\n                        Address = "bitcoincash:qzmd5vxgh9m22m6fgvm57yd6kjnjl9qnwywsf3583n",\n                        Value = (decimal) 0.00000546,\n                        TokenQty = 0,\n                        TokenQtyStr = "0",\n                        TokenId = null\n                    },\n                    new()\n                    {\n                        Txid = "fb2a4baa0aa1e69609d373b5b53770fcea2bb7c899c9ecbe51bfa193d05cce5b",\n                        Vout = 3,\n                        ScriptSig = new ScriptSig\n                        {\n                            Asm =\n                                "3045022100cf29ad3390631bd221e6f9fa3defe7bc99e2ffce5ebd5ce4bc7ad5aab320da78022036806de1ed220e886db15727bca97716a9b543b8c1cd062a84f9881168be9f0d[ALL|FORKID] 0379cb3d35c712cebbf609d2ce6b1c0d4b70dd27bbb3a9b0bd5491a5954aeb4687",\n                            Hex =\n                                "483045022100cf29ad3390631bd221e6f9fa3defe7bc99e2ffce5ebd5ce4bc7ad5aab320da78022036806de1ed220e886db15727bca97716a9b543b8c1cd062a84f9881168be9f0d41210379cb3d35c712cebbf609d2ce6b1c0d4b70dd27bbb3a9b0bd5491a5954aeb4687"\n                        },\n                        Sequence = 4294967295,\n                        Address = "bitcoincash:qzmd5vxgh9m22m6fgvm57yd6kjnjl9qnwywsf3583n",\n                        Value = (decimal) 0.00024852,\n                        TokenQty = 0,\n                        TokenQtyStr = "0",\n                        TokenId = null\n                    }\n                },\n                Vout = new List<PsfSlpTransactionDataVout>\n                {\n                    new()\n                    {\n                        Value = 0,\n                        N = 0,\n                        ScriptPubKey = new ScriptPubKey\n                        {\n                            Asm =\n                                "OP_RETURN 5262419 1 1145980243 02e0c4057b9d5962ca5d51d4fa2bd814e11e7e3f98afcf5b19be7966c68027ad 0000000000000000",\n                            Hex =\n                                "6a04534c500001010453454e442002e0c4057b9d5962ca5d51d4fa2bd814e11e7e3f98afcf5b19be7966c68027ad080000000000000000",\n                            Type = "nulldata"\n                        },\n                        TokenQty = null,\n                        TokenQtyStr = null\n                    },\n                    new()\n                    {\n                        Value = (decimal) 0.00000546,\n                        N = 1,\n                        ScriptPubKey = new ScriptPubKey\n                        {\n                            Asm =\n                                "OP_DUP OP_HASH160 b6da30c8b976a56f4943374f11bab4a72f941371 OP_EQUALVERIFY OP_CHECKSIG",\n                            Hex = "76a914b6da30c8b976a56f4943374f11bab4a72f94137188ac",\n                            ReqSigs = 1,\n                            Type = "pubkeyhash",\n                            Addresses = new List<string>\n                            {\n                                "bitcoincash:qzmd5vxgh9m22m6fgvm57yd6kjnjl9qnwywsf3583n"\n                            }\n                        },\n                        TokenQtyStr = "0",\n                        TokenQty = 0\n                    },\n                    new()\n                    {\n                        Value = (decimal) 0.00000546,\n                        N = 2,\n                        ScriptPubKey = new ScriptPubKey\n                        {\n                            Asm =\n                                "OP_DUP OP_HASH160 b6da30c8b976a56f4943374f11bab4a72f941371 OP_EQUALVERIFY OP_CHECKSIG",\n                            Hex = "76a914b6da30c8b976a56f4943374f11bab4a72f94137188ac",\n                            ReqSigs = 1,\n                            Type = "pubkeyhash",\n                            Addresses = new List<string>\n                            {\n                                "bitcoincash:qzmd5vxgh9m22m6fgvm57yd6kjnjl9qnwywsf3583n"\n                            }\n                        },\n                        TokenQtyStr = null,\n                        TokenQty = null\n                    },\n                    new()\n                    {\n                        Value = (decimal) 0.0002244,\n                        N = 3,\n                        ScriptPubKey = new ScriptPubKey\n                        {\n                            Asm =\n                                "OP_DUP OP_HASH160 b6da30c8b976a56f4943374f11bab4a72f941371 OP_EQUALVERIFY OP_CHECKSIG",\n                            Hex = "76a914b6da30c8b976a56f4943374f11bab4a72f94137188ac",\n                            ReqSigs = 1,\n                            Type = "pubkeyhash",\n                            Addresses = new List<string>\n                            {\n                                "bitcoincash:qzmd5vxgh9m22m6fgvm57yd6kjnjl9qnwywsf3583n"\n                            }\n                        },\n                        TokenQty = null,\n                        TokenQtyStr = null\n                    }\n                },\n                Hex =\n                    "0200000004c889d0e312b027affc3f45650e6f1160e1aa06aeb182ac3ae9529a089b6a4278010000006a473044022070ec2c752a8ab70dddbda98943045de9c3e66b7721448d16921134f932552c4502205f855f703f030bacb1ffc6dccf0cff6f1aeaf6b89ee2a6c7bb54829769d8d3aa41210379cb3d35c712cebbf609d2ce6b1c0d4b70dd27bbb3a9b0bd5491a5954aeb4687ffffffffb0ce596d9b3f260d52db5609974c08499de686a58b249bd6a98ec457dda523d7010000006a47304402206f510267fafb26c2a808381c3b9de6af02eb0b8fd21a951aa56f1cf6652770400220410acf9b8b0ed242833492b5973020eeef78d3dcd81f9f25e9e1d3d137274d3041210379cb3d35c712cebbf609d2ce6b1c0d4b70dd27bbb3a9b0bd5491a5954aeb4687ffffffff5bce5cd093a1bf51beecc999c8b72beafc7037b5b573d30996e6a10aaa4b2afb020000006b483045022100b7abe253b84f19407b223d57b47ff4e472747feec0797c545598c5eb7fe5dc5f0220160e9410deae317bfaf51f62e5c82e83ce658685da506e3ab62e435e0305fb3141210379cb3d35c712cebbf609d2ce6b1c0d4b70dd27bbb3a9b0bd5491a5954aeb4687ffffffff5bce5cd093a1bf51beecc999c8b72beafc7037b5b573d30996e6a10aaa4b2afb030000006b483045022100cf29ad3390631bd221e6f9fa3defe7bc99e2ffce5ebd5ce4bc7ad5aab320da78022036806de1ed220e886db15727bca97716a9b543b8c1cd062a84f9881168be9f0d41210379cb3d35c712cebbf609d2ce6b1c0d4b70dd27bbb3a9b0bd5491a5954aeb4687ffffffff040000000000000000376a04534c500001010453454e442002e0c4057b9d5962ca5d51d4fa2bd814e11e7e3f98afcf5b19be7966c68027ad08000000000000000022020000000000001976a914b6da30c8b976a56f4943374f11bab4a72f94137188ac22020000000000001976a914b6da30c8b976a56f4943374f11bab4a72f94137188aca8570000000000001976a914b6da30c8b976a56f4943374f11bab4a72f94137188ac00000000",\n                BlockHash = "000000000000000004391adddbbe8a00c15240682dd5954fb6dd8cd9e1ca4b69",\n                Confirmations = 52186,\n                Time = 1617055596,\n                BlockTime = 1617055596,\n                BlockHeight = 680895,\n                IsSlpTx = true,\n                TokenTxType = "SEND",\n                TokenId = "02e0c4057b9d5962ca5d51d4fa2bd814e11e7e3f98afcf5b19be7966c68027ad",\n                TokenType = 1,\n                TokenTicker = "SNC",\n                TokenName = "Sincretica",\n                TokenDecimals = 0,\n                TokenUri = "mint.bitcoin.com",\n                TokenDocHash = "",\n                IsValidSlp = true\n            }\n        };\n'))),(0,d.kt)(b.Z,{value:"...",label:"...",mdxType:"TabItem"},"\ud83c\udf4c For more information Check out  ",(0,d.kt)("a",{target:"_blank",href:"https://api.fullstack.cash/docs/#api-PSF_SLP-SLP_transaction_data."},"SLP transaction data."))))}m.isMDXComponent=!0}}]);