"use strict";(self.webpackChunkmy_website=self.webpackChunkmy_website||[]).push([[6289],{3905:function(e,a,n){n.d(a,{Zo:function(){return o},kt:function(){return u}});var t=n(7294);function c(e,a,n){return a in e?Object.defineProperty(e,a,{value:n,enumerable:!0,configurable:!0,writable:!0}):e[a]=n,e}function r(e,a){var n=Object.keys(e);if(Object.getOwnPropertySymbols){var t=Object.getOwnPropertySymbols(e);a&&(t=t.filter((function(a){return Object.getOwnPropertyDescriptor(e,a).enumerable}))),n.push.apply(n,t)}return n}function s(e){for(var a=1;a<arguments.length;a++){var n=null!=arguments[a]?arguments[a]:{};a%2?r(Object(n),!0).forEach((function(a){c(e,a,n[a])})):Object.getOwnPropertyDescriptors?Object.defineProperties(e,Object.getOwnPropertyDescriptors(n)):r(Object(n)).forEach((function(a){Object.defineProperty(e,a,Object.getOwnPropertyDescriptor(n,a))}))}return e}function d(e,a){if(null==e)return{};var n,t,c=function(e,a){if(null==e)return{};var n,t,c={},r=Object.keys(e);for(t=0;t<r.length;t++)n=r[t],a.indexOf(n)>=0||(c[n]=e[n]);return c}(e,a);if(Object.getOwnPropertySymbols){var r=Object.getOwnPropertySymbols(e);for(t=0;t<r.length;t++)n=r[t],a.indexOf(n)>=0||Object.prototype.propertyIsEnumerable.call(e,n)&&(c[n]=e[n])}return c}var i=t.createContext({}),f=function(e){var a=t.useContext(i),n=a;return e&&(n="function"==typeof e?e(a):s(s({},a),e)),n},o=function(e){var a=f(e.components);return t.createElement(i.Provider,{value:a},e.children)},l={inlineCode:"code",wrapper:function(e){var a=e.children;return t.createElement(t.Fragment,{},a)}},b=t.forwardRef((function(e,a){var n=e.components,c=e.mdxType,r=e.originalType,i=e.parentName,o=d(e,["components","mdxType","originalType","parentName"]),b=f(n),u=c,m=b["".concat(i,".").concat(u)]||b[u]||l[u]||r;return n?t.createElement(m,s(s({ref:a},o),{},{components:n})):t.createElement(m,s({ref:a},o))}));function u(e,a){var n=arguments,c=a&&a.mdxType;if("string"==typeof e||c){var r=n.length,s=new Array(r);s[0]=b;var d={};for(var i in a)hasOwnProperty.call(a,i)&&(d[i]=a[i]);d.originalType=e,d.mdxType="string"==typeof e?e:c,s[1]=d;for(var f=2;f<r;f++)s[f]=n[f];return t.createElement.apply(null,s)}return t.createElement.apply(null,n)}b.displayName="MDXCreateElement"},8215:function(e,a,n){n.d(a,{Z:function(){return c}});var t=n(7294);function c(e){var a=e.children,n=e.hidden,c=e.className;return t.createElement("div",{role:"tabpanel",hidden:n,className:c},a)}},9877:function(e,a,n){n.d(a,{Z:function(){return o}});var t=n(3117),c=n(7294),r=n(2389),s=n(9575),d=n(6010),i="tabItem_LplD";function f(e){var a,n,r,f=e.lazy,o=e.block,l=e.defaultValue,b=e.values,u=e.groupId,m=e.className,p=c.Children.map(e.children,(function(e){if((0,c.isValidElement)(e)&&void 0!==e.props.value)return e;throw new Error("Docusaurus error: Bad <Tabs> child <"+("string"==typeof e.type?e.type:e.type.name)+'>: all children of the <Tabs> component should be <TabItem>, and every <TabItem> should have a unique "value" prop.')})),h=null!=b?b:p.map((function(e){var a=e.props;return{value:a.value,label:a.label,attributes:a.attributes}})),k=(0,s.lx)(h,(function(e,a){return e.value===a.value}));if(k.length>0)throw new Error('Docusaurus error: Duplicate values "'+k.map((function(e){return e.value})).join(", ")+'" found in <Tabs>. Every value needs to be unique.');var y=null===l?l:null!=(a=null!=l?l:null==(n=p.find((function(e){return e.props.default})))?void 0:n.props.value)?a:null==(r=p[0])?void 0:r.props.value;if(null!==y&&!h.some((function(e){return e.value===y})))throw new Error('Docusaurus error: The <Tabs> has a defaultValue "'+y+'" but none of its children has the corresponding value. Available values are: '+h.map((function(e){return e.value})).join(", ")+". If you intend to show no default tab, use defaultValue={null} instead.");var w=(0,s.UB)(),g=w.tabGroupChoices,v=w.setTabGroupChoices,x=(0,c.useState)(y),T=x[0],_=x[1],q=[],S=(0,s.o5)().blockElementScrollPositionUntilNextRender;if(null!=u){var H=g[u];null!=H&&H!==T&&h.some((function(e){return e.value===H}))&&_(H)}var j=function(e){var a=e.currentTarget,n=q.indexOf(a),t=h[n].value;t!==T&&(S(a),_(t),null!=u&&v(u,t))},I=function(e){var a,n=null;switch(e.key){case"ArrowRight":var t=q.indexOf(e.currentTarget)+1;n=q[t]||q[0];break;case"ArrowLeft":var c=q.indexOf(e.currentTarget)-1;n=q[c]||q[q.length-1]}null==(a=n)||a.focus()};return c.createElement("div",{className:"tabs-container"},c.createElement("ul",{role:"tablist","aria-orientation":"horizontal",className:(0,d.Z)("tabs",{"tabs--block":o},m)},h.map((function(e){var a=e.value,n=e.label,r=e.attributes;return c.createElement("li",(0,t.Z)({role:"tab",tabIndex:T===a?0:-1,"aria-selected":T===a,key:a,ref:function(e){return q.push(e)},onKeyDown:I,onFocus:j,onClick:j},r,{className:(0,d.Z)("tabs__item",i,null==r?void 0:r.className,{"tabs__item--active":T===a})}),null!=n?n:a)}))),f?(0,c.cloneElement)(p.filter((function(e){return e.props.value===T}))[0],{className:"margin-vert--md"}):c.createElement("div",{className:"margin-vert--md"},p.map((function(e,a){return(0,c.cloneElement)(e,{key:a,hidden:e.props.value!==T})}))))}function o(e){var a=(0,r.Z)();return c.createElement(f,(0,t.Z)({key:String(a)},e))}},7405:function(e,a,n){n.r(a),n.d(a,{assets:function(){return b},contentTitle:function(){return o},default:function(){return p},frontMatter:function(){return f},metadata:function(){return l},toc:function(){return u}});var t=n(3117),c=n(102),r=(n(7294),n(3905)),s=n(9877),d=n(8215),i=["components"],f={sidebar_position:4,id:"electrumx-api",title:"\ud83c\udfafElectrumX/Fulcrum API"},o=void 0,l={unversionedId:"cash-netcore/electrumx-api",id:"cash-netcore/electrumx-api",title:"\ud83c\udfafElectrumX/Fulcrum API",description:"For more details visit BCH APIs page.",source:"@site/docs/cash-netcore/electrumx-api.mdx",sourceDirName:"cash-netcore",slug:"/cash-netcore/electrumx-api",permalink:"/docs/cash-netcore/electrumx-api",editUrl:"https://github.com/facebook/docusaurus/tree/main/packages/create-docusaurus/templates/shared/docs/cash-netcore/electrumx-api.mdx",tags:[],version:"current",sidebarPosition:4,frontMatter:{sidebar_position:4,id:"electrumx-api",title:"\ud83c\udfafElectrumX/Fulcrum API"},sidebar:"tutorialSidebar",previous:{title:"\ud83c\udfafControl API",permalink:"/docs/cash-netcore/control-api"},next:{title:"create-a-page",permalink:"/docs/tutorial-basics/create-a-page"}},b={},u=[{value:"\ud83d\udcb0Get <code>count</code> block headers starting at a height",id:"get-count-block-headers-starting-at-a-height",level:3},{value:"Returns an array with block headers starting at the block height",id:"returns-an-array-with-block-headers-starting-at-the-block-height",level:4},{value:"\ud83d\udcb0Get balance for a single address.",id:"get-balance-for-a-single-address",level:3},{value:"Returns an object with confirmed and unconfirmed balance associated with an address.",id:"returns-an-object-with-confirmed-and-unconfirmed-balance-associated-with-an-address",level:4},{value:"\ud83d\udcb0Get balances for an array of addresses.",id:"get-balances-for-an-array-of-addresses",level:3},{value:"Returns an array of balanes associated with an array of address. Limited to 20 items per request.",id:"returns-an-array-of-balanes-associated-with-an-array-of-address-limited-to-20-items-per-request",level:4},{value:"\ud83d\udcb0Get block headers for an array of height + count pairs.",id:"get-block-headers-for-an-array-of-height--count-pairs",level:3},{value:"Returns an array of objects with blockheaders of an array of TXIDs. Limited to 20 items per request.",id:"returns-an-array-of-objects-with-blockheaders-of-an-array-of-txids-limited-to-20-items-per-request",level:4},{value:"\ud83d\udcb0Get the transaction history for an array of addresses.",id:"get-the-transaction-history-for-an-array-of-addresses",level:3},{value:"Returns an array of transactions associated with an array of address. Limited to 20 items per request.",id:"returns-an-array-of-transactions-associated-with-an-array-of-address-limited-to-20-items-per-request",level:4},{value:"\ud83d\udcb0Get transaction details for a TXID",id:"get-transaction-details-for-a-txid",level:3},{value:"Returns an object with transaction details of the TXID",id:"returns-an-object-with-transaction-details-of-the-txid",level:4},{value:"\ud83d\udcb0Get transaction details for an array of TXIDs",id:"get-transaction-details-for-an-array-of-txids",level:3},{value:"Returns an array of objects with transaction details of an array of TXIDs. Limited to 20 items per request.",id:"returns-an-array-of-objects-with-transaction-details-of-an-array-of-txids-limited-to-20-items-per-request",level:4},{value:"\ud83d\udcb0Get transaction history for a single address.",id:"get-transaction-history-for-a-single-address",level:3},{value:"Returns an array of historical transactions associated with an address.",id:"returns-an-array-of-historical-transactions-associated-with-an-address",level:4},{value:"\ud83d\udcb0Get unconfirmed utxos for a single address.",id:"get-unconfirmed-utxos-for-a-single-address",level:3},{value:"Returns an object with unconfirmed UTXOs associated with an address.",id:"returns-an-object-with-unconfirmed-utxos-associated-with-an-address",level:4},{value:"\ud83d\udcb0Get unconfirmed utxos for an array of addresses.",id:"get-unconfirmed-utxos-for-an-array-of-addresses",level:3},{value:"Returns an array of objects with unconfirmed UTXOs associated with an address. Limited to 20 items per request.",id:"returns-an-array-of-objects-with-unconfirmed-utxos-associated-with-an-address-limited-to-20-items-per-request",level:4}],m={toc:u};function p(e){var a=e.components,n=(0,c.Z)(e,i);return(0,r.kt)("wrapper",(0,t.Z)({},m,n,{components:a,mdxType:"MDXLayout"}),(0,r.kt)("div",{className:"admonition admonition-success alert alert--success"},(0,r.kt)("div",{parentName:"div",className:"admonition-heading"},(0,r.kt)("h5",{parentName:"div"},(0,r.kt)("span",{parentName:"h5",className:"admonition-icon"},(0,r.kt)("svg",{parentName:"span",xmlns:"http://www.w3.org/2000/svg",width:"12",height:"16",viewBox:"0 0 12 16"},(0,r.kt)("path",{parentName:"svg",fillRule:"evenodd",d:"M6.5 0C3.48 0 1 2.19 1 5c0 .92.55 2.25 1 3 1.34 2.25 1.78 2.78 2 4v1h5v-1c.22-1.22.66-1.75 2-4 .45-.75 1-2.08 1-3 0-2.81-2.48-5-5.5-5zm3.64 7.48c-.25.44-.47.8-.67 1.11-.86 1.41-1.25 2.06-1.45 3.23-.02.05-.02.11-.02.17H5c0-.06 0-.13-.02-.17-.2-1.17-.59-1.83-1.45-3.23-.2-.31-.42-.67-.67-1.11C2.44 6.78 2 5.65 2 5c0-2.2 2.02-4 4.5-4 1.22 0 2.36.42 3.22 1.19C10.55 2.94 11 3.94 11 5c0 .66-.44 1.78-.86 2.48zM4 14h5c-.23 1.14-1.3 2-2.5 2s-2.27-.86-2.5-2z"}))),"Notes")),(0,r.kt)("div",{parentName:"div",className:"admonition-content"},(0,r.kt)("p",{parentName:"div"},"For more details visit ",(0,r.kt)("a",{parentName:"p",href:"https://api.fullstack.cash/docs/#api-ElectrumX_/_Fulcrum"},"BCH APIs")," page."))),(0,r.kt)("pre",null,(0,r.kt)("code",{parentName:"pre",className:"language-jsx"},"//imports\nusing Cash.NetCore.Contracts;\nusing Cash.NetCore.Models.Response.ElectrumX;\nusing Cash.NetCore.Models.Request.ElectrumX;\n//inject\nprivate readonly IElectrumXService _electrumXService;\n")),(0,r.kt)("h3",{id:"get-count-block-headers-starting-at-a-height"},"\ud83d\udcb0Get ",(0,r.kt)("inlineCode",{parentName:"h3"},"count")," block headers starting at a height"),(0,r.kt)("h4",{id:"returns-an-array-with-block-headers-starting-at-the-block-height"},"Returns an array with block headers starting at the block height"),(0,r.kt)(s.Z,{mdxType:"Tabs"},(0,r.kt)(d.Z,{value:"request",label:"Request",default:!0,mdxType:"TabItem"},(0,r.kt)("pre",null,(0,r.kt)("code",{parentName:"pre",className:"language-jsx"},"//Sample Request \ud83c\udf4e\nvar blockHeaders = await _electrumXService!.GetElectrumXBlockHeadersCountAsync(42, 2);\n"))),(0,r.kt)(d.Z,{value:"response",label:"Response",mdxType:"TabItem"},(0,r.kt)("pre",null,(0,r.kt)("code",{parentName:"pre",className:"language-jsx"},'//will return a current blockHeaders: \ud83c\udf4a\nvar blockHeaders = new BlockHeaderCount\n        {\n            Success = true,\n            Headers = new List<string>\n            {\n                "010000008b52bbd72c2f49569059f559c1b1794de5192e4f7d6d2b03c7482bad0000000083e4f8a9d502ed0c419075c1abb5d56f878a2e9079e5612bfb76a2dc37d9c42741dd6849ffff001d2b909dd6",\n                "01000000f528fac1bcb685d0cd6c792320af0300a5ce15d687c7149548904e31000000004e8985a786d864f21e9cbb7cbdf4bc9265fe681b7a0893ac55a8e919ce035c2f85de6849ffff001d385ccb7c"\n            }\n        };\n'))),(0,r.kt)(d.Z,{value:"...",label:"...",mdxType:"TabItem"},"\ud83c\udf4c For more information Check out  ",(0,r.kt)("a",{target:"_blank",href:"https://api.fullstack.cash/docs/#api-ElectrumX_/_Fulcrum-Block_header_data_for_a_%60count%60_blocks_starting_at_a_block_height"},"Get `count` block headers starting at a height"))),(0,r.kt)("h3",{id:"get-balance-for-a-single-address"},"\ud83d\udcb0Get balance for a single address."),(0,r.kt)("h4",{id:"returns-an-object-with-confirmed-and-unconfirmed-balance-associated-with-an-address"},"Returns an object with confirmed and unconfirmed balance associated with an address."),(0,r.kt)(s.Z,{mdxType:"Tabs"},(0,r.kt)(d.Z,{value:"request",label:"Request",default:!0,mdxType:"TabItem"},(0,r.kt)("pre",null,(0,r.kt)("code",{parentName:"pre",className:"language-jsx"},'//Sample Request \ud83c\udf4e\nvar electrumXBalance = await _electrumXService!.GetElectrumXBalanceAsync(\n            "bitcoincash:qr69kyzha07dcecrsvjwsj4s6slnlq4r8c30lxnur3");\n'))),(0,r.kt)(d.Z,{value:"response",label:"Response",mdxType:"TabItem"},(0,r.kt)("pre",null,(0,r.kt)("code",{parentName:"pre",className:"language-jsx"},"//will return a current BalanceInfo: \ud83c\udf4a\nvar electrumXBalance = new BalanceInfo\n        {\n            Success = true,\n            Balance = new Balance{\n            Confirmed = 1600,\n            Unconfirmed = 0\n            }\n        };\n"))),(0,r.kt)(d.Z,{value:"...",label:"...",mdxType:"TabItem"},"\ud83c\udf4c For more information Check out  ",(0,r.kt)("a",{target:"_blank",href:"https://api.fullstack.cash/docs/#api-ElectrumX_/_Fulcrum-Balance_for_a_single_address"},"Get balance for a single address."))),(0,r.kt)("h3",{id:"get-balances-for-an-array-of-addresses"},"\ud83d\udcb0Get balances for an array of addresses."),(0,r.kt)("h4",{id:"returns-an-array-of-balanes-associated-with-an-array-of-address-limited-to-20-items-per-request"},"Returns an array of balanes associated with an array of address. Limited to 20 items per request."),(0,r.kt)(s.Z,{mdxType:"Tabs"},(0,r.kt)(d.Z,{value:"request",label:"Request",default:!0,mdxType:"TabItem"},(0,r.kt)("pre",null,(0,r.kt)("code",{parentName:"pre",className:"language-jsx"},'//Sample Request \ud83c\udf4e\nvar electrumXBalances =  await _electrumXService!.GetElectrumXBalancesAsync(\n            new[]\n            {\n                 "bitcoincash:qrdka2205f4hyukutc2g0s6lykperc8nsu5u2ddpqf",\n                 "bitcoincash:qzs02v05l7qs5s24srqju498qu55dwuj0cx5ehjm2c"\n            });\n'))),(0,r.kt)(d.Z,{value:"response",label:"Response",mdxType:"TabItem"},(0,r.kt)("pre",null,(0,r.kt)("code",{parentName:"pre",className:"language-jsx"},'//will return a current BalancesInfo: \ud83c\udf4a\nvar electrumXBalances = new BalancesInfo\n        {\n            Success = true,\n            BalancesInfoData = new List<BalancesInfoData>()\n            {\n                new()\n                {\n                    Balance = new Balance()\n                    {\n                        Confirmed = 7000,\n                        Unconfirmed = 0\n                    },\n                    Address = "bitcoincash:qrdka2205f4hyukutc2g0s6lykperc8nsu5u2ddpqf"\n                },\n                new()\n                {\n                    Balance = new Balance()\n                    {\n                        Confirmed = 17278,\n                        Unconfirmed = 0\n                    },\n                    Address = "bitcoincash:qzs02v05l7qs5s24srqju498qu55dwuj0cx5ehjm2c"\n                }\n            }\n        };\n'))),(0,r.kt)(d.Z,{value:"...",label:"...",mdxType:"TabItem"},"\ud83c\udf4c For more information Check out  ",(0,r.kt)("a",{target:"_blank",href:"https://api.fullstack.cash/docs/#api-ElectrumX_/_Fulcrum-Balances_for_an_array_of_addresses"},"Get balances for an array of addresses."))),(0,r.kt)("h3",{id:"get-block-headers-for-an-array-of-height--count-pairs"},"\ud83d\udcb0Get block headers for an array of height + count pairs."),(0,r.kt)("h4",{id:"returns-an-array-of-objects-with-blockheaders-of-an-array-of-txids-limited-to-20-items-per-request"},"Returns an array of objects with blockheaders of an array of TXIDs. Limited to 20 items per request."),(0,r.kt)(s.Z,{mdxType:"Tabs"},(0,r.kt)(d.Z,{value:"request",label:"Request",default:!0,mdxType:"TabItem"},(0,r.kt)("pre",null,(0,r.kt)("code",{parentName:"pre",className:"language-jsx"},"//Sample Request \ud83c\udf4e\nvar parameters = new List<BlockHeadersRequest>\n        {\n            new()\n            {\n                Height = 42,\n                Count = 2\n            },\n            new()\n            {\n                Height = 100,\n                Count = 5\n            }\n        };\n\nvar blockHeaders = await _electrumXService!.GetElectrumXBlockHeadersHeightCountAsync(parameters);\n"))),(0,r.kt)(d.Z,{value:"response",label:"Response",mdxType:"TabItem"},(0,r.kt)("pre",null,(0,r.kt)("code",{parentName:"pre",className:"language-jsx"},'//will return a current BlockHeaderHeightsCounts: \ud83c\udf4a\nvar blockHeaders = new BlockHeaderHeightsCounts\n        {\n            Success = true,\n            Headers = new List<BlockHeaderHeightCount>\n            {\n                new()\n                {\n                    Headers = new List<string>\n                    {\n                        "010000008b52bbd72c2f49569059f559c1b1794de5192e4f7d6d2b03c7482bad0000000083e4f8a9d502ed0c419075c1abb5d56f878a2e9079e5612bfb76a2dc37d9c42741dd6849ffff001d2b909dd6",\n                        "01000000f528fac1bcb685d0cd6c792320af0300a5ce15d687c7149548904e31000000004e8985a786d864f21e9cbb7cbdf4bc9265fe681b7a0893ac55a8e919ce035c2f85de6849ffff001d385ccb7c"\n                    }\n                },\n                new()\n                {\n                    Headers = new List<string>\n                    {\n                        "0100000095194b8567fe2e8bbda931afd01a7acd399b9325cb54683e64129bcd00000000660802c98f18fd34fd16d61c63cf447568370124ac5f3be626c2e1c3c9f0052d19a76949ffff001d33f3c25d",\n                        "010000009a22db7fd25e719abf9e8ccf869fbbc1e22fa71822a37efae054c17b00000000f7a5d0816883ec2f4d237082b47b4d3a6a26549d65ac50d8527b67ab4cb7e6cfadaa6949ffff001d15fa87f6",\n                        "0100000084999d1fa0ae9b7eb8b75fa8ad765c6d467a6117015860dce4d89bb600000000ceefaf23adb1009753545c230a374c48851676ccb7d6f004b66dd302ceb5443b4eae6949ffff001d192e9d71",\n                        "01000000192f62105285f84e7876b764dde15cc96e3689ccd39ff1131f18041600000000f38b91a939e7f81483f88ffcf3da8607fd928a093746a03b5eb4964ae0a4d2886bb16949ffff001d1541834f",\n                        "01000000753fbb8b0a766119fe8e9347b55cf6f977bc961d7dff46b87c050921000000004bb7d646fe8e6678ab8829cc899a89f256b6cf19dbddd494a773b057c374002489b36949ffff001d1766221f"\n                    }\n                }\n            }\n        };\n'))),(0,r.kt)(d.Z,{value:"...",label:"...",mdxType:"TabItem"},"\ud83c\udf4c For more information Check out  ",(0,r.kt)("a",{target:"_blank",href:"https://api.fullstack.cash/docs/#api-ElectrumX_/_Fulcrum-Block_headers_for_an_array_of_height_+_count_pairs"},"Get block headers for an array of height + count pairs"))),(0,r.kt)("h3",{id:"get-the-transaction-history-for-an-array-of-addresses"},"\ud83d\udcb0Get the transaction history for an array of addresses."),(0,r.kt)("h4",{id:"returns-an-array-of-transactions-associated-with-an-array-of-address-limited-to-20-items-per-request"},"Returns an array of transactions associated with an array of address. Limited to 20 items per request."),(0,r.kt)(s.Z,{mdxType:"Tabs"},(0,r.kt)(d.Z,{value:"request",label:"Request",default:!0,mdxType:"TabItem"},(0,r.kt)("pre",null,(0,r.kt)("code",{parentName:"pre",className:"language-jsx"},'//Sample Request \ud83c\udf4e\n var transactionHistories = await _electrumXService!.GetElectrumXTransactionHistoryAsync(\n            new[]\n            {\n                "bitcoincash:qrdka2205f4hyukutc2g0s6lykperc8nsu5u2ddpqf",\n                "bitcoincash:qzs02v05l7qs5s24srqju498qu55dwuj0cx5ehjm2c"\n            });\n'))),(0,r.kt)(d.Z,{value:"response",label:"Response",mdxType:"TabItem"},(0,r.kt)("pre",null,(0,r.kt)("code",{parentName:"pre",className:"language-jsx"},'//will return a current TransactionHistories: \ud83c\udf4a\n var transactionHistories = new TransactionHistories\n        {\n            Success = true,\n            Transactions = new List<TransactionHistory>()\n            {\n                new()\n                {\n                    Transactions = new List<TransactionHistoryData>()\n                    {\n                        new()\n                        {\n                            Height = 500029,\n                            TxHash = "1dcd59449918de93a1ad0fd23133a4ce107f6e3680609fc48b74f73cc719764f"\n                        },\n                        new()\n                        {\n                            Height = 501087,\n                            TxHash = "39b94ef9573b453efcd1491998b332066a37ec6c6ef31dd30152ea211453839e"\n                        }...{N}\n                    },\n                    Address = "bitcoincash:qr69kyzha07dcecrsvjwsj4s6slnlq4r8c30lxnur3"\n                },\n                new()\n                {\n                    Transactions = new List<TransactionHistoryData>()\n                    {\n                        new()\n                        {\n                            Height = 528850,\n                            TxHash = "81039b1d7b855b133f359f9dc65f776bd105650153a941675fedc504228ddbd3"\n                        },\n                        new()\n                        {\n                           Height = 528952,\n                          TxHash = "544c15ce35c0f2e808d28f29d6587f1ec9276233e29856b7f2938cf0daef0026"\n                        }...{N}\n                    },\n                    Address = "bitcoincash:qzs02v05l7qs5s24srqju498qu55dwuj0cx5ehjm2c"\n                }\n            }\n        };\n'))),(0,r.kt)(d.Z,{value:"...",label:"...",mdxType:"TabItem"},"\ud83c\udf4c For more information Check out  ",(0,r.kt)("a",{target:"_blank",href:"https://api.fullstack.cash/docs/#api-ElectrumX_/_Fulcrum-Transactions_for_an_array_of_addresses"},"Get the transaction history for an array of addresses."))),(0,r.kt)("h3",{id:"get-transaction-details-for-a-txid"},"\ud83d\udcb0Get transaction details for a TXID"),(0,r.kt)("h4",{id:"returns-an-object-with-transaction-details-of-the-txid"},"Returns an object with transaction details of the TXID"),(0,r.kt)(s.Z,{mdxType:"Tabs"},(0,r.kt)(d.Z,{value:"request",label:"Request",default:!0,mdxType:"TabItem"},(0,r.kt)("pre",null,(0,r.kt)("code",{parentName:"pre",className:"language-jsx"},'//Sample Request \ud83c\udf4e\n var transactionDetails = await _electrumXService!.GetElectrumXTransactionDetailsAsync(\n            "4db095f34d632a4daf942142c291f1f2abb5ba2e1ccac919d85bdc2f671fb251");\n'))),(0,r.kt)(d.Z,{value:"response",label:"Response",mdxType:"TabItem"},(0,r.kt)("pre",null,(0,r.kt)("code",{parentName:"pre",className:"language-jsx"},'//will return TransactionDetails: \ud83c\udf4a\nvar transactionDetails = new TransactionDetails\n        {\n            Success = true,\n            Details = new TransactionDetailData\n            {\n               BlockHash = "0000000000000000002aaf94953da3b487317508ebd1003a1d75d6d6ec2e75cc",\n                BlockTime = 1578327094,\n               Confirmations = 116969,\n                Hash = "4db095f34d632a4daf942142c291f1f2abb5ba2e1ccac919d85bdc2f671fb251",\n                Hex = "020000000265d13ef402840c8a51f39779afb7ae4d49e4b0a3c24a3d0e7742038f2c679667010000006441dd1dd72770cadede1a7fd0363574846c48468a398ddfa41a9677c74cac8d2652b682743725a3b08c6c2021a629011e11a264d9036e9d5311e35b5f4937ca7b4e4121020797d8fd4d2fa6fd7cdeabe2526bfea2b90525d6e8ad506ec4ee3c53885aa309ffffffff65d13ef402840c8a51f39779afb7ae4d49e4b0a3c24a3d0e7742038f2c679667000000006441347d7f218c11c04487c1ad8baac28928fb10e5054cd4494b94d078cfa04ccf68e064fb188127ff656c0b98e9ce87f036d183925d0d0860605877d61e90375f774121028a53f95eb631b460854fc836b2e5d31cad16364b4dc3d970babfbdcc3f2e4954ffffffff035ac355000000000017a914189ce02e332548f4804bac65cba68202c9dbf822878dfd0800000000001976a914285bb350881b21ac89724c6fb6dc914d096cd53b88acf9ef3100000000001976a91445f1f1c4a9b9419a5088a3e9c24a293d7a150e6488ac00000000",\n               LockTime = 0,\n                Size = 392,\n                Time = 1578327094,\n                TxId = "4db095f34d632a4daf942142c291f1f2abb5ba2e1ccac919d85bdc2f671fb251",\n                Version = 2,\n                Vin = new List<TransactionDetailVin>\n                {\n                    new()\n                    {\n                        ScriptSig = new ScriptSig\n                        {\n                            Asm = "dd1dd72770cadede1a7fd0363574846c48468a398ddfa41a9677c74cac8d2652b682743725a3b08c6c2021a629011e11a264d9036e9d5311e35b5f4937ca7b4e[ALL|FORKID] 020797d8fd4d2fa6fd7cdeabe2526bfea2b90525d6e8ad506ec4ee3c53885aa309",\n                            Hex = "41dd1dd72770cadede1a7fd0363574846c48468a398ddfa41a9677c74cac8d2652b682743725a3b08c6c2021a629011e11a264d9036e9d5311e35b5f4937ca7b4e4121020797d8fd4d2fa6fd7cdeabe2526bfea2b90525d6e8ad506ec4ee3c53885aa309"\n                        },\n                        Sequence = 4294967295,\n                        Vout = 1,\n                        Txid = "6796672c8f0342770e3d4ac2a3b0e4494daeb7af7997f3518a0c8402f43ed165"\n                     },\n                    new()\n                    {\n                        ScriptSig = new ScriptSig\n                        {\n                            Asm = "347d7f218c11c04487c1ad8baac28928fb10e5054cd4494b94d078cfa04ccf68e064fb188127ff656c0b98e9ce87f036d183925d0d0860605877d61e90375f77[ALL|FORKID] 028a53f95eb631b460854fc836b2e5d31cad16364b4dc3d970babfbdcc3f2e4954",\n                            Hex = "41347d7f218c11c04487c1ad8baac28928fb10e5054cd4494b94d078cfa04ccf68e064fb188127ff656c0b98e9ce87f036d183925d0d0860605877d61e90375f774121028a53f95eb631b460854fc836b2e5d31cad16364b4dc3d970babfbdcc3f2e4954"\n                        },\n                        Sequence = 4294967295,\n                        Vout = 0,\n                        Txid = "6796672c8f0342770e3d4ac2a3b0e4494daeb7af7997f3518a0c8402f43ed165"\n                    }\n                },\n                Vout = new List<TransactionDetailVout>\n                {\n                    new()\n                    {\n                        N = 0,\n                        ScriptPubKey = new ScriptPubKey\n                        {\n                            Asm = "OP_HASH160 189ce02e332548f4804bac65cba68202c9dbf822 OP_EQUAL",\n                            Hex = "a914189ce02e332548f4804bac65cba68202c9dbf82287",\n                            ReqSigs = 1,\n                            Type = "scripthash",\n                            Addresses = new List<string>\n                            {\n                                "bitcoincash:pqvfecpwxvj53ayqfwkxtjaxsgpvnklcyg8xewk9hl"\n                            }\n                        },\n                        Value = 0.0562057\n                    },\n                    new()\n                    {\n                        N = 1,\n                        ScriptPubKey = new ScriptPubKey\n                        {\n                            Asm = "OP_DUP OP_HASH160 285bb350881b21ac89724c6fb6dc914d096cd53b OP_EQUALVERIFY OP_CHECKSIG",\n                            Hex = "76a914285bb350881b21ac89724c6fb6dc914d096cd53b88ac",\n                            ReqSigs = 1,\n                            Type = "pubkeyhash",\n                            Addresses = new List<string>\n                            {\n                                "bitcoincash:qq59hv6s3qdjrtyfwfxxldkuj9xsjmx48vrz882knz"\n                            }\n                        },\n                        Value = 0.00589197\n                    },\n                    new()\n                    {\n                        N = 2,\n                        ScriptPubKey = new ScriptPubKey\n                        {\n                            Asm = "OP_DUP OP_HASH160 45f1f1c4a9b9419a5088a3e9c24a293d7a150e64 OP_EQUALVERIFY OP_CHECKSIG",\n                            Hex = "76a91445f1f1c4a9b9419a5088a3e9c24a293d7a150e6488ac",\n                            ReqSigs = 1,\n                            Type = "pubkeyhash",\n                            Addresses = new List<string>\n                            {\n                                "bitcoincash:qpzlruwy4xu5rxjs3z37nsj29y7h59gwvsu4ddp0u4"\n                            }\n                        },\n                        Value = 0.03272697\n                    }\n                }\n            }\n        };\n'))),(0,r.kt)(d.Z,{value:"...",label:"...",mdxType:"TabItem"},"\ud83c\udf4c For more information Check out  ",(0,r.kt)("a",{target:"_blank",href:"https://api.fullstack.cash/docs/#api-ElectrumX_/_Fulcrum-transaction_details_for_a_TXID"},"Get transaction details for a TXID"))),(0,r.kt)("h3",{id:"get-transaction-details-for-an-array-of-txids"},"\ud83d\udcb0Get transaction details for an array of TXIDs"),(0,r.kt)("h4",{id:"returns-an-array-of-objects-with-transaction-details-of-an-array-of-txids-limited-to-20-items-per-request"},"Returns an array of objects with transaction details of an array of TXIDs. Limited to 20 items per request."),(0,r.kt)(s.Z,{mdxType:"Tabs"},(0,r.kt)(d.Z,{value:"request",label:"Request",default:!0,mdxType:"TabItem"},(0,r.kt)("pre",null,(0,r.kt)("code",{parentName:"pre",className:"language-jsx"},'//Sample Request \ud83c\udf4e\n var transactionsDetail = await _electrumXService!.GetElectrumXTransactionDetailsAsync(\n            new[]\n            {\n                "4db095f34d632a4daf942142c291f1f2abb5ba2e1ccac919d85bdc2f671fb251",\n                "ff03401fd979bd980b8dce8410d875048b437054e6b2df3f49379eac34df8110"\n            });\n'))),(0,r.kt)(d.Z,{value:"response",label:"Response",mdxType:"TabItem"},(0,r.kt)("pre",null,(0,r.kt)("code",{parentName:"pre",className:"language-jsx"},'//will return TransactionsDetail: \ud83c\udf4a\n var transactionsDetail = new TransactionsDetail\n        {\n            Success = true,\n            Transactions = new List<TransactionsDetailData>\n            {\n                new()\n                {\n                    Details = new TransactionDetailData\n                    {\n                        BlockHash = "0000000000000000002aaf94953da3b487317508ebd1003a1d75d6d6ec2e75cc",\n                        BlockTime = 1578327094,\n                        Confirmations = 116993,\n                        Hash = "4db095f34d632a4daf942142c291f1f2abb5ba2e1ccac919d85bdc2f671fb251",\n                        Hex =\n                            "020000000265d13ef402840c8a51f39779afb7ae4d49e4b0a3c24a3d0e7742038f2c679667010000006441dd1dd72770cadede1a7fd0363574846c48468a398ddfa41a9677c74cac8d2652b682743725a3b08c6c2021a629011e11a264d9036e9d5311e35b5f4937ca7b4e4121020797d8fd4d2fa6fd7cdeabe2526bfea2b90525d6e8ad506ec4ee3c53885aa309ffffffff65d13ef402840c8a51f39779afb7ae4d49e4b0a3c24a3d0e7742038f2c679667000000006441347d7f218c11c04487c1ad8baac28928fb10e5054cd4494b94d078cfa04ccf68e064fb188127ff656c0b98e9ce87f036d183925d0d0860605877d61e90375f774121028a53f95eb631b460854fc836b2e5d31cad16364b4dc3d970babfbdcc3f2e4954ffffffff035ac355000000000017a914189ce02e332548f4804bac65cba68202c9dbf822878dfd0800000000001976a914285bb350881b21ac89724c6fb6dc914d096cd53b88acf9ef3100000000001976a91445f1f1c4a9b9419a5088a3e9c24a293d7a150e6488ac00000000",\n                        LockTime = 0,\n                        Size = 392,\n                        Time = 1578327094,\n                        TxId = "4db095f34d632a4daf942142c291f1f2abb5ba2e1ccac919d85bdc2f671fb251",\n                        Version = 2,\n                        Vin = new List<TransactionDetailVin>\n                        {\n                            new()\n                            {\n                                ScriptSig = new ScriptSig\n                                {\n                                    Asm =\n                                        "dd1dd72770cadede1a7fd0363574846c48468a398ddfa41a9677c74cac8d2652b682743725a3b08c6c2021a629011e11a264d9036e9d5311e35b5f4937ca7b4e[ALL|FORKID] 020797d8fd4d2fa6fd7cdeabe2526bfea2b90525d6e8ad506ec4ee3c53885aa309",\n                                    Hex =\n                                        "41dd1dd72770cadede1a7fd0363574846c48468a398ddfa41a9677c74cac8d2652b682743725a3b08c6c2021a629011e11a264d9036e9d5311e35b5f4937ca7b4e4121020797d8fd4d2fa6fd7cdeabe2526bfea2b90525d6e8ad506ec4ee3c53885aa309"\n                                },\n                                Sequence = 4294967295,\n                                Txid = "6796672c8f0342770e3d4ac2a3b0e4494daeb7af7997f3518a0c8402f43ed165",\n                                Vout = 1\n                            },\n                            new()\n                            {\n                                ScriptSig = new ScriptSig\n                                {\n                                    Asm =\n                                        "347d7f218c11c04487c1ad8baac28928fb10e5054cd4494b94d078cfa04ccf68e064fb188127ff656c0b98e9ce87f036d183925d0d0860605877d61e90375f77[ALL|FORKID] 028a53f95eb631b460854fc836b2e5d31cad16364b4dc3d970babfbdcc3f2e4954",\n                                    Hex =\n                                        "41347d7f218c11c04487c1ad8baac28928fb10e5054cd4494b94d078cfa04ccf68e064fb188127ff656c0b98e9ce87f036d183925d0d0860605877d61e90375f774121028a53f95eb631b460854fc836b2e5d31cad16364b4dc3d970babfbdcc3f2e4954"\n                                },\n                                Sequence = 4294967295,\n                                Txid = "6796672c8f0342770e3d4ac2a3b0e4494daeb7af7997f3518a0c8402f43ed165",\n                                Vout = 0\n                            }\n                        },\n                        Vout = new List<TransactionDetailVout>\n                        {\n                            new()\n                            {\n                                N = 0,\n                                ScriptPubKey = new ScriptPubKey\n                                {\n                                    Asm = "OP_HASH160 189ce02e332548f4804bac65cba68202c9dbf822 OP_EQUAL",\n                                    Hex = "a914189ce02e332548f4804bac65cba68202c9dbf82287",\n                                    ReqSigs = 1,\n                                    Type = "scripthash",\n                                    Addresses = new List<string>\n                                    {\n                                        "bitcoincash:pqvfecpwxvj53ayqfwkxtjaxsgpvnklcyg8xewk9hl"\n                                    }\n                                },\n                                Value = 0.0562057\n                            },\n                            new()\n                            {\n                                N = 1,\n                                ScriptPubKey = new ScriptPubKey\n                                {\n                                    Asm =\n                                        "OP_DUP OP_HASH160 285bb350881b21ac89724c6fb6dc914d096cd53b OP_EQUALVERIFY OP_CHECKSIG",\n                                    Hex = "76a914285bb350881b21ac89724c6fb6dc914d096cd53b88ac",\n                                    ReqSigs = 1,\n                                    Type = "pubkeyhash",\n                                    Addresses = new List<string>\n                                    {\n                                        "bitcoincash:qq59hv6s3qdjrtyfwfxxldkuj9xsjmx48vrz882knz"\n                                    }\n                                },\n                                Value = 0.00589197\n                            },\n                            new()\n                            {\n                                N = 2,\n                                ScriptPubKey = new ScriptPubKey\n                                {\n                                    Asm =\n                                        "OP_DUP OP_HASH160 45f1f1c4a9b9419a5088a3e9c24a293d7a150e64 OP_EQUALVERIFY OP_CHECKSIG",\n                                    Hex = "76a91445f1f1c4a9b9419a5088a3e9c24a293d7a150e6488ac",\n                                    ReqSigs = 1,\n                                    Type = "pubkeyhash",\n                                    Addresses = new List<string>\n                                    {\n                                        "bitcoincash:qpzlruwy4xu5rxjs3z37nsj29y7h59gwvsu4ddp0u4"\n                                    }\n                                },\n                                Value = 0.03272697\n                            }\n                        }\n                    },\n                    Txid = "4db095f34d632a4daf942142c291f1f2abb5ba2e1ccac919d85bdc2f671fb251"\n                },\n                new()\n                {\n                    Details = new TransactionDetailData\n                    {\n                        BlockHash = "0000000000000000018dde4ae5e0a65231f3e0847888d23c30aab8867554afaa",\n                        BlockTime = 1648655328,\n                        Confirmations = 1,\n                        Hash = "ff03401fd979bd980b8dce8410d875048b437054e6b2df3f49379eac34df8110",\n                        Hex =\n                            "0200000002bb076f278fb6da0d4139db44d6b39bb0075ee39067e8e59c913e2ce364bbefd4010000006a473044022078125597cc2d68c2d3f4d11a7252a8804b69e6ce80abebc027edcf6fde8eef8602201bad60058d7f14dbc5be714c76fc958d97eaa78fae7c6ea4ff3eab9ccaf5949341210270c976d907dd0d5e25ff16addc4b99d06edf279c9a04637c8bd6c18d5859fe2effffffffc8522523ff01f5f49a5e9759abdbe3d00e9046fbf52be7547095c50c455ba949010000006b483045022100ea5cb9a4dd44367d52d2ca063d4afd3d11299d0e55cdc5d917c8efd265f2bc80022077fc930aecdd830930fff75fc9d87ac9f2bdce5a468433658ccee8a27c88bee1412102886cce80857360fce1dda8956813952989eba7d9a3077008c22953ca78af0e6fffffffff024b49d300000000001976a9143a06fc7cc97302b3f0d60a3a09bdf7c78833447188aca70f0000000000001976a9149710b0ebd2c9ce0cae7a90841652389bcfed946888ac00000000",\n                        LockTime = 0,\n                        Size = 373,\n                        Time = 1648655328,\n                        TxId = "ff03401fd979bd980b8dce8410d875048b437054e6b2df3f49379eac34df8110",\n                        Version = 2,\n                        Vin = new List<TransactionDetailVin>\n                        {\n                            new()\n                            {\n                                ScriptSig = new ScriptSig\n                                {\n                                    Asm =\n                                        "3044022078125597cc2d68c2d3f4d11a7252a8804b69e6ce80abebc027edcf6fde8eef8602201bad60058d7f14dbc5be714c76fc958d97eaa78fae7c6ea4ff3eab9ccaf59493[ALL|FORKID] 0270c976d907dd0d5e25ff16addc4b99d06edf279c9a04637c8bd6c18d5859fe2e",\n                                    Hex =\n                                        "473044022078125597cc2d68c2d3f4d11a7252a8804b69e6ce80abebc027edcf6fde8eef8602201bad60058d7f14dbc5be714c76fc958d97eaa78fae7c6ea4ff3eab9ccaf5949341210270c976d907dd0d5e25ff16addc4b99d06edf279c9a04637c8bd6c18d5859fe2e"\n                                },\n                                Sequence = 4294967295,\n                                Txid = "d4efbb64e32c3e919ce5e86790e35e07b09bb3d644db39410ddab68f276f07bb",\n                                Vout = 1\n                            },\n                            new()\n                            {\n                                ScriptSig = new ScriptSig\n                                {\n                                    Asm =\n                                        "3045022100ea5cb9a4dd44367d52d2ca063d4afd3d11299d0e55cdc5d917c8efd265f2bc80022077fc930aecdd830930fff75fc9d87ac9f2bdce5a468433658ccee8a27c88bee1[ALL|FORKID] 02886cce80857360fce1dda8956813952989eba7d9a3077008c22953ca78af0e6f",\n                                    Hex =\n                                        "483045022100ea5cb9a4dd44367d52d2ca063d4afd3d11299d0e55cdc5d917c8efd265f2bc80022077fc930aecdd830930fff75fc9d87ac9f2bdce5a468433658ccee8a27c88bee1412102886cce80857360fce1dda8956813952989eba7d9a3077008c22953ca78af0e6f"\n                                },\n                                Sequence = 4294967295,\n                                Txid = "49a95b450cc5957054e72bf5fb46900ed0e3dbab59975e9af4f501ff232552c8",\n                                Vout = 1\n                            }\n                        },\n                        Vout = new List<TransactionDetailVout>\n                        {\n                            new()\n                            {\n                                N = 0,\n                                ScriptPubKey = new ScriptPubKey\n                                {\n                                    Asm = "OP_DUP OP_HASH160 3a06fc7cc97302b3f0d60a3a09bdf7c788334471 OP_EQUALVERIFY OP_CHECKSIG",\n                                    Hex = "76a9143a06fc7cc97302b3f0d60a3a09bdf7c78833447188ac",\n                                    ReqSigs = 1,\n                                    Type = "pubkeyhash",\n                                    Addresses = new List<string>\n                                    {\n                                        "bitcoincash:qqaqdlrue9es9vls6c9r5zda7lrcsv6ywyq2mt0wuf"\n                                    }\n                                },\n                                Value = 0.13846859\n                            },\n                            new()\n                            {\n                                N = 1,\n                                ScriptPubKey = new ScriptPubKey\n                                {\n                                    Asm =\n                                        "OP_DUP OP_HASH160 9710b0ebd2c9ce0cae7a90841652389bcfed9468 OP_EQUALVERIFY OP_CHECKSIG",\n                                    Hex = "76a9149710b0ebd2c9ce0cae7a90841652389bcfed946888ac",\n                                    ReqSigs = 1,\n                                    Type = "pubkeyhash",\n                                    Addresses = new List<string>\n                                    {\n                                        "bitcoincash:qzt3pv8t6tyuur9w02ggg9jj8zdulmv5dqzvlf63s4"\n                                    }\n                                },\n                                Value = 0.00004007\n                            }\n                        }\n                    },\n                    Txid = "ff03401fd979bd980b8dce8410d875048b437054e6b2df3f49379eac34df8110"\n                },\n            }\n        };       \n'))),(0,r.kt)(d.Z,{value:"...",label:"...",mdxType:"TabItem"},"\ud83c\udf4c For more information Check out  ",(0,r.kt)("a",{target:"_blank",href:"https://api.fullstack.cash/docs/#api-ElectrumX_/_Fulcrum-Transaction_details_for_an_array_of_TXIDs"},"Get transaction details for an array of TXIDs"))),(0,r.kt)("h3",{id:"get-transaction-history-for-a-single-address"},"\ud83d\udcb0Get transaction history for a single address."),(0,r.kt)("h4",{id:"returns-an-array-of-historical-transactions-associated-with-an-address"},"Returns an array of historical transactions associated with an address."),(0,r.kt)(s.Z,{mdxType:"Tabs"},(0,r.kt)(d.Z,{value:"request",label:"Request",default:!0,mdxType:"TabItem"},(0,r.kt)("pre",null,(0,r.kt)("code",{parentName:"pre",className:"language-jsx"},'//Sample Request \ud83c\udf4e\n var transactionHistory = await _electrumXService!.GetElectrumXTransactionHistoryAsync(\n            "bitcoincash:qr69kyzha07dcecrsvjwsj4s6slnlq4r8c30lxnur3");\n'))),(0,r.kt)(d.Z,{value:"response",label:"Response",mdxType:"TabItem"},(0,r.kt)("pre",null,(0,r.kt)("code",{parentName:"pre",className:"language-jsx"},'//will return TransactionHistorySingle: \ud83c\udf4a\n var transactionHistory = new TransactionHistorySingle\n        {\n            Success = true,\n            Transactions = new List<TransactionHistoryData>\n            {\n                new()\n                {\n                    Height = 603416,\n                    TxHash = "eef683d236d88e978bd406419f144057af3fe1b62ef59162941c1a9f05ded62c"\n                },\n                new()\n                {\n                    Height = 646894,\n                    TxHash = "4c695fae636f3e8e2edc571d11756b880ccaae744390f3950d798ce7b5e25754"\n                }\n            }\n        };\n'))),(0,r.kt)(d.Z,{value:"...",label:"...",mdxType:"TabItem"},"\ud83c\udf4c For more information Check out  ",(0,r.kt)("a",{target:"_blank",href:"https://api.fullstack.cash/docs/#api-ElectrumX_/_Fulcrum-Transaction_history_for_a_single_address"},"Get transaction history for a single address."))),(0,r.kt)("h3",{id:"get-unconfirmed-utxos-for-a-single-address"},"\ud83d\udcb0Get unconfirmed utxos for a single address."),(0,r.kt)("h4",{id:"returns-an-object-with-unconfirmed-utxos-associated-with-an-address"},"Returns an object with unconfirmed UTXOs associated with an address."),(0,r.kt)(s.Z,{mdxType:"Tabs"},(0,r.kt)(d.Z,{value:"request",label:"Request",default:!0,mdxType:"TabItem"},(0,r.kt)("pre",null,(0,r.kt)("code",{parentName:"pre",className:"language-jsx"},'//Sample Request \ud83c\udf4e\nvar utxos = await _electrumXService!.GetUnConfirmedAsync(\n            "bitcoincash:qp2ejsu4zt3k42723zh06az2s5rqjmrvhqp74tlslr");\n'))),(0,r.kt)(d.Z,{value:"response",label:"Response",mdxType:"TabItem"},(0,r.kt)("pre",null,(0,r.kt)("code",{parentName:"pre",className:"language-jsx"},'//will return UnconfirmedSingleUtxos: \ud83c\udf4a\nvar utxos = new UnconfirmedSingleUtxos\n        {\n            Success = true,\n            Utxos = new List<Utxos>\n            {\n                new()\n                {\n                    Fee = 219,\n                    Height = 0,\n                    TxHash = "0fc11070429e563a0e12338511f7014d2ffa6dadf0dd13827045ef2a8b4246d6"\n                },\n                new()\n                {\n                    Fee = 219,\n                    Height = -1,\n                    TxHash = "aad0b34ecb9abf20684400cc36ddc910745d02aaf7b2041e7bd789998d48afc7"\n                }\n            }\n        };\n'))),(0,r.kt)(d.Z,{value:"...",label:"...",mdxType:"TabItem"},"\ud83c\udf4c For more information Check out  ",(0,r.kt)("a",{target:"_blank",href:"https://api.fullstack.cash/docs/#api-ElectrumX_/_Fulcrum-Unconfirmed_UTXOs_for_a_single_address"},"Get unconfirmed utxos for a single address."))),(0,r.kt)("h3",{id:"get-unconfirmed-utxos-for-an-array-of-addresses"},"\ud83d\udcb0Get unconfirmed utxos for an array of addresses."),(0,r.kt)("h4",{id:"returns-an-array-of-objects-with-unconfirmed-utxos-associated-with-an-address-limited-to-20-items-per-request"},"Returns an array of objects with unconfirmed UTXOs associated with an address. Limited to 20 items per request."),(0,r.kt)(s.Z,{mdxType:"Tabs"},(0,r.kt)(d.Z,{value:"request",label:"Request",default:!0,mdxType:"TabItem"},(0,r.kt)("pre",null,(0,r.kt)("code",{parentName:"pre",className:"language-jsx"},'//Sample Request \ud83c\udf4e\n  var utxos = await _electrumXService!.GetUnConfirmedAsync(\n            new[]\n            {\n                "bitcoincash:qp2ejsu4zt3k42723zh06az2s5rqjmrvhqp74tlslr",\n                "bitcoincash:qq78sq7ugu0kfuc4nlp4wxsqawfaf8z3vyf0lcn7l0"\n            });\n'))),(0,r.kt)(d.Z,{value:"response",label:"Response",mdxType:"TabItem"},(0,r.kt)("pre",null,(0,r.kt)("code",{parentName:"pre",className:"language-jsx"},'//will return UnconfirmedUtxos: \ud83c\udf4a\n var utxos = new UnconfirmedUtxos\n        {\n            Success = true,\n            Utxos = new List<UtxosData>\n            {\n                new()\n                {\n                    Utxos = new List<Utxos>\n                    {\n                        new()\n                        {\n                            Fee = 219,\n                            Height = 0,\n                            TxHash = "0fc11070429e563a0e12338511f7014d2ffa6dadf0dd13827045ef2a8b4246d6"\n                        },\n                        new()\n                        {\n                            Fee = 219,\n                            Height = -1,\n                            TxHash = "aad0b34ecb9abf20684400cc36ddc910745d02aaf7b2041e7bd789998d48afc7"\n                        }\n                    },\n                    Address = "bitcoincash:qp2ejsu4zt3k42723zh06az2s5rqjmrvhqp74tlslr"\n                },\n                new()\n                {\n                    Utxos = new List<Utxos>\n                    {\n                        new()\n                        {\n                            Fee = 220,\n                            Height = 0,\n                            TxHash = "0bca5ef42d63b46876bb2a87e94efd3ed35269d86b60b1e3048f09f8474bfa26"\n                        },\n                    },\n                    Address = "bitcoincash:qq78sq7ugu0kfuc4nlp4wxsqawfaf8z3vyf0lcn7l0"\n                }\n            }\n        };\n'))),(0,r.kt)(d.Z,{value:"...",label:"...",mdxType:"TabItem"},"\ud83c\udf4c For more information Check out  ",(0,r.kt)("a",{target:"_blank",href:"https://api.fullstack.cash/docs/#api-ElectrumX_/_Fulcrum-Unconfirmed_UTXOs_for_an_array_of_addresses"},"Get unconfirmed utxos for an array of addresses."))))}p.isMDXComponent=!0}}]);